{
  "contractName": "BaconFaucet",
  "abi": [
    {
      "inputs": [
        {
          "internalType": "address",
          "name": "_bacon",
          "type": "address"
        },
        {
          "internalType": "address",
          "name": "_link",
          "type": "address"
        }
      ],
      "payable": false,
      "stateMutability": "nonpayable",
      "type": "constructor"
    },
    {
      "constant": true,
      "inputs": [],
      "name": "baconAddress",
      "outputs": [
        {
          "internalType": "address",
          "name": "",
          "type": "address"
        }
      ],
      "payable": false,
      "stateMutability": "view",
      "type": "function"
    },
    {
      "constant": true,
      "inputs": [
        {
          "internalType": "address",
          "name": "",
          "type": "address"
        }
      ],
      "name": "grantees",
      "outputs": [
        {
          "internalType": "uint256",
          "name": "",
          "type": "uint256"
        }
      ],
      "payable": false,
      "stateMutability": "view",
      "type": "function"
    },
    {
      "constant": true,
      "inputs": [],
      "name": "linkAddress",
      "outputs": [
        {
          "internalType": "address",
          "name": "",
          "type": "address"
        }
      ],
      "payable": false,
      "stateMutability": "view",
      "type": "function"
    },
    {
      "constant": false,
      "inputs": [],
      "name": "gimme",
      "outputs": [
        {
          "internalType": "bool",
          "name": "",
          "type": "bool"
        }
      ],
      "payable": false,
      "stateMutability": "nonpayable",
      "type": "function"
    },
    {
      "constant": false,
      "inputs": [
        {
          "internalType": "address",
          "name": "_address",
          "type": "address"
        }
      ],
      "name": "resetGrantee",
      "outputs": [
        {
          "internalType": "bool",
          "name": "",
          "type": "bool"
        }
      ],
      "payable": false,
      "stateMutability": "nonpayable",
      "type": "function"
    },
    {
      "constant": true,
      "inputs": [
        {
          "internalType": "address",
          "name": "_address",
          "type": "address"
        }
      ],
      "name": "getGrantCount",
      "outputs": [
        {
          "internalType": "uint256",
          "name": "",
          "type": "uint256"
        }
      ],
      "payable": false,
      "stateMutability": "view",
      "type": "function"
    },
    {
      "constant": false,
      "inputs": [
        {
          "internalType": "address",
          "name": "_newAddress",
          "type": "address"
        }
      ],
      "name": "changeBaconAddress",
      "outputs": [
        {
          "internalType": "bool",
          "name": "",
          "type": "bool"
        }
      ],
      "payable": false,
      "stateMutability": "nonpayable",
      "type": "function"
    },
    {
      "constant": false,
      "inputs": [
        {
          "internalType": "address",
          "name": "_newAddress",
          "type": "address"
        }
      ],
      "name": "changeLinkAddress",
      "outputs": [
        {
          "internalType": "bool",
          "name": "",
          "type": "bool"
        }
      ],
      "payable": false,
      "stateMutability": "nonpayable",
      "type": "function"
    },
    {
      "constant": true,
      "inputs": [],
      "name": "getOwner",
      "outputs": [
        {
          "internalType": "address",
          "name": "",
          "type": "address"
        }
      ],
      "payable": false,
      "stateMutability": "view",
      "type": "function"
    },
    {
      "constant": false,
      "inputs": [
        {
          "internalType": "address payable",
          "name": "_newAddress",
          "type": "address"
        }
      ],
      "name": "changeOwner",
      "outputs": [
        {
          "internalType": "bool",
          "name": "",
          "type": "bool"
        }
      ],
      "payable": false,
      "stateMutability": "nonpayable",
      "type": "function"
    },
    {
      "constant": false,
      "inputs": [],
      "name": "kill",
      "outputs": [],
      "payable": false,
      "stateMutability": "nonpayable",
      "type": "function"
    }
  ],
  "bytecode": "0x608060405234801561001057600080fd5b5060405161076b38038061076b8339818101604052604081101561003357600080fd5b508051602090910151600080546001600160a01b03199081163317909155600180546001600160a01b03948516908316179055600280549390921692169190911790556106e6806100856000396000f3fe608060405234801561001057600080fd5b50600436106100995760003560e01c8063235cea981461009e57806323f9ac9f146100c257806341c0e1b5146100ca578063589596b7146100d4578063893d20e81461010c578063a6f9dae114610114578063af0564f51461014e578063ca39f0fa14610174578063de82efb41461019a578063eea38e25146101a2578063fc68f75b146101c8575b600080fd5b6100a66101ee565b604080516001600160a01b039092168252519081900360200190f35b6100a66101fd565b6100d261020c565b005b6100fa600480360360208110156100ea57600080fd5b50356001600160a01b0316610231565b60408051918252519081900360200190f35b6100a6610243565b61013a6004803603602081101561012a57600080fd5b50356001600160a01b0316610252565b604080519115158252519081900360200190f35b6100fa6004803603602081101561016457600080fd5b50356001600160a01b031661028f565b61013a6004803603602081101561018a57600080fd5b50356001600160a01b03166102aa565b61013a610312565b61013a600480360360208110156101b857600080fd5b50356001600160a01b0316610613565b61013a600480360360208110156101de57600080fd5b50356001600160a01b031661064f565b6002546001600160a01b031681565b6001546001600160a01b031681565b6000546001600160a01b0316331461022357600080fd5b6000546001600160a01b0316ff5b60036020526000908152604090205481565b6000546001600160a01b031690565b600080546001600160a01b0316331461026a57600080fd5b50600080546001600160a01b0383166001600160a01b03199091161790556001919050565b6001600160a01b031660009081526003602052604090205490565b600080546001600160a01b031633146102f45760405162461bcd60e51b815260040180806020018281038252602681526020018061068c6026913960400191505060405180910390fd5b506001600160a01b0316600090815260036020526040812055600190565b33600090815260036020526040812080546001019081905560051161033657600080fd5b6001546040805133602482015269152d02c7e14af680000060448083019190915282518083039091018152606490910182526020810180516001600160e01b031663a9059cbb60e01b178152915181516000946060946001600160a01b039091169392918291908083835b602083106103c05780518252601f1990920191602091820191016103a1565b6001836020036101000a0380198251168184511680821785525050505050509050019150506000604051808303816000865af19150503d8060008114610422576040519150601f19603f3d011682016040523d82523d6000602084013e610427565b606091505b5091509150600081806020019051602081101561044357600080fd5b505190508280156104545750600181145b6104a3576040805162461bcd60e51b815260206004820152601b60248201527a115490cc8c081d1bdad95b881d1c985b9cd9995c8819985a5b1959602a1b604482015290519081900360640190fd5b60025460408051336024820152674563918244f4000060448083019190915282518083039091018152606490910182526020810180516001600160e01b031663a9059cbb60e01b178152915181516001600160a01b0390941693919290918291908083835b602083106105275780518252601f199092019160209182019101610508565b6001836020036101000a0380198251168184511680821785525050505050509050019150506000604051808303816000865af19150503d8060008114610589576040519150601f19603f3d011682016040523d82523d6000602084013e61058e565b606091505b5080519194509250602080840191908110156105a957600080fd5b505190508280156105ba5750600181145b610609576040805162461bcd60e51b815260206004820152601b60248201527a115490cc8c081d1bdad95b881d1c985b9cd9995c8819985a5b1959602a1b604482015290519081900360640190fd5b6001935050505090565b600080546001600160a01b0316331461062b57600080fd5b600180546001600160a01b0319166001600160a01b03939093169290921790915590565b600080546001600160a01b0316331461066757600080fd5b600280546001600160a01b0319166001600160a01b0393909316929092179091559056fe4f6e6c7920746865206f776e65722063616e20646f2072657365742061206772616e7465652ea265627a7a72315820b64fa6255a01e36109813560265df2cdb951f6366857ac35f7faf5202db8f39d64736f6c63430005110032",
  "source": "pragma solidity >=0.4.24 <0.6.0;\n\n\nimport \"./SafeMath.sol\";\n\ninterface PaymentToken {\n  function transferFrom(address from, address to, uint256 value) external returns (bool);\n  function transfer(address to, uint256 value) external returns (bool);\n  function decimals() external returns (uint8);\n}\n\ncontract BaconFaucet {\n    using SafeMath for uint256;\n\n    bytes32 constant TX_SUCCESS = bytes32(0x0000000000000000000000000000000000000000000000000000000000000001);\n    uint256 constant BACON_AMOUNT = 100000000000000000000000;\n    uint256 constant LINK_AMOUNT = 5000000000000000000;\n    address payable owner;\n    address public baconAddress;\n    address public linkAddress;\n\n    mapping(address => uint256) public grantees;\n\n    constructor(address _bacon, address _link)\n        public\n    {\n        owner = msg.sender;\n        baconAddress = _bacon;\n        linkAddress = _link;\n    }\n\n    function gimme()\n        public\n        returns (bool)\n    {\n        // update first in case of re-entry\n        ++grantees[msg.sender];\n\n        require(grantees[msg.sender] < 5);\n        (bool success, bytes memory result) = address(PaymentToken(baconAddress)).call(\n            abi.encodeWithSignature(\n                \"transfer(address,uint256)\",\n                msg.sender,\n                BACON_AMOUNT\n            )\n        );\n\n        bytes32 txCheck = abi.decode(result, (bytes32));\n        require(success && txCheck == TX_SUCCESS, \"ERC20 token transfer failed\");\n\n        (success, result) = address(PaymentToken(linkAddress)).call(\n            abi.encodeWithSignature(\n                \"transfer(address,uint256)\",\n                msg.sender,\n                LINK_AMOUNT\n            )\n        );\n\n        txCheck = abi.decode(result, (bytes32));\n        require(success && txCheck == TX_SUCCESS, \"ERC20 token transfer failed\");\n\n        return true;\n    }\n\n    function resetGrantee(address _address)\n        public\n        returns (bool)\n    {\n         require(msg.sender == owner, \"Only the owner can do reset a grantee.\");\n         grantees[_address] = 0;\n         return true;\n    }\n\n    function getGrantCount(address _address)\n        public\n        view\n        returns (uint256)\n    {\n        return grantees[_address];\n    }\n\n    function changeBaconAddress(address _newAddress)\n        public\n        returns (bool)\n    {\n        require(msg.sender == owner);\n        baconAddress = _newAddress;\n    }\n\n    function changeLinkAddress(address _newAddress)\n        public\n        returns (bool)\n    {\n        require(msg.sender == owner);\n        linkAddress = _newAddress;\n    }\n\n    function getOwner()\n        public\n        view\n    returns (address)\n    {\n    return owner;\n    }\n\n    function changeOwner(address payable _newAddress)\n        public\n        returns (bool)\n    {\n        require(msg.sender == owner);\n        owner = _newAddress;\n        return true;\n    }\n\n    function kill()\n        public\n    {\n        require(msg.sender == owner);\n        selfdestruct(owner);\n    }\n}\n",
  "sourcePath": "/home/vagrant/DAPPS/smartpiggiesGithub/smartpiggies/contracts/BaconFaucet.sol",
  "compiler": {
    "name": "solc",
    "version": "0.5.17+commit.d19bba13.Emscripten.clang"
  },
  "schemaVersion": "3.1.0",
  "updatedAt": "2020-05-10T02:18:08.277Z",
  "devdoc": {
    "methods": {}
  },
  "userdoc": {
    "methods": {}
  }
}