{
  "contractName": "ResolverSelfReturn",
  "abi": [
    {
      "inputs": [
        {
          "internalType": "string",
          "name": "_dataSource",
          "type": "string"
        },
        {
          "internalType": "string",
          "name": "_underlying",
          "type": "string"
        },
        {
          "internalType": "string",
          "name": "_oracleService",
          "type": "string"
        },
        {
          "internalType": "string",
          "name": "_endpoint",
          "type": "string"
        },
        {
          "internalType": "string",
          "name": "_path",
          "type": "string"
        },
        {
          "internalType": "address",
          "name": "_oracleTokenAddress",
          "type": "address"
        },
        {
          "internalType": "uint256",
          "name": "_price",
          "type": "uint256"
        }
      ],
      "payable": false,
      "stateMutability": "nonpayable",
      "type": "constructor"
    },
    {
      "constant": true,
      "inputs": [
        {
          "internalType": "bytes32",
          "name": "",
          "type": "bytes32"
        }
      ],
      "name": "callers",
      "outputs": [
        {
          "internalType": "address",
          "name": "",
          "type": "address"
        }
      ],
      "payable": false,
      "stateMutability": "view",
      "type": "function"
    },
    {
      "constant": true,
      "inputs": [],
      "name": "dataSource",
      "outputs": [
        {
          "internalType": "string",
          "name": "",
          "type": "string"
        }
      ],
      "payable": false,
      "stateMutability": "view",
      "type": "function"
    },
    {
      "constant": true,
      "inputs": [],
      "name": "endpoint",
      "outputs": [
        {
          "internalType": "string",
          "name": "",
          "type": "string"
        }
      ],
      "payable": false,
      "stateMutability": "view",
      "type": "function"
    },
    {
      "constant": true,
      "inputs": [],
      "name": "jobId",
      "outputs": [
        {
          "internalType": "bytes32",
          "name": "",
          "type": "bytes32"
        }
      ],
      "payable": false,
      "stateMutability": "view",
      "type": "function"
    },
    {
      "constant": true,
      "inputs": [],
      "name": "lastId",
      "outputs": [
        {
          "internalType": "bytes32",
          "name": "",
          "type": "bytes32"
        }
      ],
      "payable": false,
      "stateMutability": "view",
      "type": "function"
    },
    {
      "constant": true,
      "inputs": [],
      "name": "lastPrice",
      "outputs": [
        {
          "internalType": "uint256",
          "name": "",
          "type": "uint256"
        }
      ],
      "payable": false,
      "stateMutability": "view",
      "type": "function"
    },
    {
      "constant": true,
      "inputs": [],
      "name": "oracleService",
      "outputs": [
        {
          "internalType": "string",
          "name": "",
          "type": "string"
        }
      ],
      "payable": false,
      "stateMutability": "view",
      "type": "function"
    },
    {
      "constant": true,
      "inputs": [],
      "name": "oracleTokenAddress",
      "outputs": [
        {
          "internalType": "address",
          "name": "",
          "type": "address"
        }
      ],
      "payable": false,
      "stateMutability": "view",
      "type": "function"
    },
    {
      "constant": true,
      "inputs": [],
      "name": "path",
      "outputs": [
        {
          "internalType": "string",
          "name": "",
          "type": "string"
        }
      ],
      "payable": false,
      "stateMutability": "view",
      "type": "function"
    },
    {
      "constant": true,
      "inputs": [],
      "name": "price",
      "outputs": [
        {
          "internalType": "uint256",
          "name": "",
          "type": "uint256"
        }
      ],
      "payable": false,
      "stateMutability": "view",
      "type": "function"
    },
    {
      "constant": true,
      "inputs": [
        {
          "internalType": "bytes32",
          "name": "",
          "type": "bytes32"
        }
      ],
      "name": "requests",
      "outputs": [
        {
          "internalType": "address",
          "name": "requester",
          "type": "address"
        },
        {
          "internalType": "address",
          "name": "payee",
          "type": "address"
        },
        {
          "internalType": "uint256",
          "name": "tokenId",
          "type": "uint256"
        }
      ],
      "payable": false,
      "stateMutability": "view",
      "type": "function"
    },
    {
      "constant": true,
      "inputs": [],
      "name": "underlying",
      "outputs": [
        {
          "internalType": "string",
          "name": "",
          "type": "string"
        }
      ],
      "payable": false,
      "stateMutability": "view",
      "type": "function"
    },
    {
      "constant": false,
      "inputs": [
        {
          "internalType": "address",
          "name": "_funder",
          "type": "address"
        },
        {
          "internalType": "uint256",
          "name": "_oracleFee",
          "type": "uint256"
        },
        {
          "internalType": "uint256",
          "name": "_tokenId",
          "type": "uint256"
        }
      ],
      "name": "fetchData",
      "outputs": [
        {
          "internalType": "bool",
          "name": "",
          "type": "bool"
        }
      ],
      "payable": false,
      "stateMutability": "nonpayable",
      "type": "function"
    },
    {
      "constant": false,
      "inputs": [
        {
          "internalType": "bytes32",
          "name": "_requestId",
          "type": "bytes32"
        },
        {
          "internalType": "uint256",
          "name": "_price",
          "type": "uint256"
        }
      ],
      "name": "getPriceCallback",
      "outputs": [
        {
          "internalType": "bool",
          "name": "",
          "type": "bool"
        }
      ],
      "payable": false,
      "stateMutability": "nonpayable",
      "type": "function"
    },
    {
      "constant": true,
      "inputs": [],
      "name": "getOwner",
      "outputs": [
        {
          "internalType": "address",
          "name": "",
          "type": "address"
        }
      ],
      "payable": false,
      "stateMutability": "view",
      "type": "function"
    },
    {
      "constant": true,
      "inputs": [],
      "name": "getAddress",
      "outputs": [
        {
          "internalType": "address",
          "name": "",
          "type": "address"
        }
      ],
      "payable": false,
      "stateMutability": "view",
      "type": "function"
    },
    {
      "constant": false,
      "inputs": [],
      "name": "kill",
      "outputs": [],
      "payable": false,
      "stateMutability": "nonpayable",
      "type": "function"
    }
  ],
  "bytecode": "0x60806040523480156200001157600080fd5b5060405162000d8c38038062000d8c833981810160405260e08110156200003757600080fd5b81019080805160405193929190846401000000008211156200005857600080fd5b9083019060208201858111156200006e57600080fd5b82516401000000008111828201881017156200008957600080fd5b82525081516020918201929091019080838360005b83811015620000b85781810151838201526020016200009e565b50505050905090810190601f168015620000e65780820380516001836020036101000a031916815260200191505b50604052602001805160405193929190846401000000008211156200010a57600080fd5b9083019060208201858111156200012057600080fd5b82516401000000008111828201881017156200013b57600080fd5b82525081516020918201929091019080838360005b838110156200016a57818101518382015260200162000150565b50505050905090810190601f168015620001985780820380516001836020036101000a031916815260200191505b5060405260200180516040519392919084640100000000821115620001bc57600080fd5b908301906020820185811115620001d257600080fd5b8251640100000000811182820188101715620001ed57600080fd5b82525081516020918201929091019080838360005b838110156200021c57818101518382015260200162000202565b50505050905090810190601f1680156200024a5780820380516001836020036101000a031916815260200191505b50604052602001805160405193929190846401000000008211156200026e57600080fd5b9083019060208201858111156200028457600080fd5b82516401000000008111828201881017156200029f57600080fd5b82525081516020918201929091019080838360005b83811015620002ce578181015183820152602001620002b4565b50505050905090810190601f168015620002fc5780820380516001836020036101000a031916815260200191505b50604052602001805160405193929190846401000000008211156200032057600080fd5b9083019060208201858111156200033657600080fd5b82516401000000008111828201881017156200035157600080fd5b82525081516020918201929091019080838360005b838110156200038057818101518382015260200162000366565b50505050905090810190601f168015620003ae5780820380516001836020036101000a031916815260200191505b5060409081526020828101519290910151600080546001600160a01b0319163317905589519294509250620003e9916004918a019062000495565b508551620003ff90600590602089019062000495565b5084516200041590600690602088019062000495565b507f343933363130636666313433343666373836663838656437393161623737303460095583516200044f90600790602087019062000495565b5082516200046590600890602086019062000495565b50600355600a80546001600160a01b0319166001600160a01b0392909216919091179055506200053a9350505050565b828054600181600116156101000203166002900490600052602060002090601f016020900481019282601f10620004d857805160ff191683800117855562000508565b8280016001018555821562000508579182015b8281111562000508578251825591602001919060010190620004eb565b50620005169291506200051a565b5090565b6200053791905b8082111562000516576000815560010162000521565b90565b610842806200054a6000396000f3fe608060405234801561001057600080fd5b50600436106100db5760003560e01c8063053f14da146100e05780631aa8ccc9146100fa5780631b076edc1461014057806323819262146101bd57806338cc4831146101e05780633dc063561461020457806341c0e1b51461020c5780635e280f11146102165780636722b27d1461021e5780636f307dc3146102265780637936464e1461022e578063893d20e81461024b5780639d86698514610253578063a035b1fe1461029a578063c1292cc3146102a2578063c2939d97146102aa578063daa64f95146102b2575b600080fd5b6100e86102ba565b60408051918252519081900360200190f35b61012c6004803603606081101561011057600080fd5b506001600160a01b0381351690602081013590604001356102c0565b604080519115158252519081900360200190f35b61014861045d565b6040805160208082528351818301528351919283929083019185019080838360005b8381101561018257818101518382015260200161016a565b50505050905090810190601f1680156101af5780820380516001836020036101000a031916815260200191505b509250505060405180910390f35b61012c600480360360408110156101d357600080fd5b50803590602001356104eb565b6101e86105fb565b604080516001600160a01b039092168252519081900360200190f35b6101486105ff565b61021461065a565b005b61014861067f565b6101e86106da565b6101486106e9565b6101e86004803603602081101561024457600080fd5b5035610744565b6101e861075f565b6102706004803603602081101561026957600080fd5b503561076e565b604080516001600160a01b0394851681529290931660208301528183015290519081900360600190f35b6100e861079c565b6100e86107a2565b6100e86107a8565b6101486107ae565b60025481565b600a54604080516001600160a01b038681166024830152306044830152606480830187905283518084039091018152608490920183526020820180516001600160e01b03166323b872dd60e01b1781529251825160009586959316939282918083835b602083106103425780518252601f199092019160209182019101610323565b6001836020036101000a0380198251168184511680821785525050505050509050019150506000604051808303816000865af19150503d80600081146103a4576040519150601f19603f3d011682016040523d82523d6000602084013e6103a9565b606091505b50509050806103b757600080fd5b60006103c1610809565b600181815560408051606081018252338082526001600160a01b038b811660208085019182528486018c81526000898152600b8352878120965187549086166001600160a01b03199182161788559351988701805499909516988416989098179093559151600290940193909355600c90529190922080549092161790556003549091506104509082906104eb565b5060019695505050505050565b6004805460408051602060026001851615610100026000190190941693909304601f810184900484028201840190925281815292918301828280156104e35780601f106104b8576101008083540402835291602001916104e3565b820191906000526020600020905b8154815290600101906020018083116104c657829003601f168201915b505050505081565b60028181556000838152600b602090815260408083208054940154815160248101919091526044808201879052825180830390910181526064909101825291820180516001600160e01b03166355f88eb760e11b17815290518251939485946001600160a01b03909116939282918083835b6020831061057c5780518252601f19909201916020918201910161055d565b6001836020036101000a0380198251168184511680821785525050505050509050019150506000604051808303816000865af19150503d80600081146105de576040519150601f19603f3d011682016040523d82523d6000602084013e6105e3565b606091505b50509050806105f157600080fd5b5060019392505050565b3090565b6008805460408051602060026001851615610100026000190190941693909304601f810184900484028201840190925281815292918301828280156104e35780601f106104b8576101008083540402835291602001916104e3565b6000546001600160a01b0316331461067157600080fd5b6000546001600160a01b0316ff5b6007805460408051602060026001851615610100026000190190941693909304601f810184900484028201840190925281815292918301828280156104e35780601f106104b8576101008083540402835291602001916104e3565b600a546001600160a01b031681565b6005805460408051602060026001851615610100026000190190941693909304601f810184900484028201840190925281815292918301828280156104e35780601f106104b8576101008083540402835291602001916104e3565b600c602052600090815260409020546001600160a01b031681565b6000546001600160a01b031690565b600b602052600090815260409020805460018201546002909201546001600160a01b03918216929091169083565b60035481565b60015481565b60095481565b6006805460408051602060026001851615610100026000190190941693909304601f810184900484028201840190925281815292918301828280156104e35780601f106104b8576101008083540402835291602001916104e3565b429056fea265627a7a7231582073cd9b621743befc9e7a0e4b32e4bbac7d42aab72ee4838e860c4940d31710c364736f6c63430005110032",
  "source": "pragma solidity >=0.4.24 <0.6.0;\n\n//import \"./RopstenConsumer.sol\";\n\ncontract ResolverSelfReturn {\n  address payable owner; //only for testing\n  bytes32 public lastId; //for testing\n  uint256 public lastPrice; //for testing\n  uint256 public price;\n  string public dataSource;\n  string public underlying;\n  string public oracleService;\n  string public endpoint; //https://api.coincap.io/v2/rates/ethereum\n  string public path; //\"data.rateUsd\"\n  bytes32 public jobId; //493610cff14346f786f88ed791ab7704\n  address public oracleTokenAddress;\n\n  struct Request {\n    address requester;\n    address payee;\n    uint256 tokenId;\n  }\n\n  mapping(bytes32 => Request) public requests;\n  mapping(bytes32 => address) public callers;\n\n  constructor(\n    string memory _dataSource,\n    string memory _underlying,\n    string memory _oracleService,\n    string memory _endpoint,\n    string memory _path,\n    address _oracleTokenAddress,\n    uint256 _price\n  )\n    public\n  {\n    owner = msg.sender;\n    dataSource = _dataSource;\n    underlying = _underlying;\n    oracleService = _oracleService;\n    jobId = bytes32(\"493610cff14346f786f88ed791ab7704\");\n    endpoint = _endpoint;\n    path = _path;\n    price = _price;\n    oracleTokenAddress = _oracleTokenAddress;\n  }\n\n  function fetchData(address _funder, uint256 _oracleFee, uint256 _tokenId)\n    public\n    returns (bool)\n  {\n    (bool success, ) = address(oracleTokenAddress).call(\n      abi.encodeWithSignature(\n        \"transferFrom(address,address,uint256)\",\n        _funder,\n        address(this),\n        _oracleFee\n      )\n    );\n    require(success);\n\n    //Chainlink.Request memory run = newRequest(jobId, address(this), this.getPriceCallback.selector);\n    //run.add(\"get\", endpoint);\n    //run.add(\"path\", path);\n    //run.addInt(\"times\", 100);\n    //bytes32 requestId = chainlinkRequest(run, _oracleFee);\n    bytes32 requestId = generateId();\n    lastId = requestId; //for testing | live network\n    requests[requestId] = Request({\n      requester: msg.sender,\n      payee: _funder,\n      tokenId: _tokenId\n      });\n    callers[requestId] = msg.sender;\n    getPriceCallback(requestId, price);\n    return true;\n\n  }\n\n  function getPriceCallback(bytes32 _requestId, uint256 _price)\n    public\n    //recordChainlinkFulfillment(_requestId)\n    returns (bool)\n  {\n    lastPrice = _price;\n    (bool success, ) = address(requests[_requestId].requester).call(\n      abi.encodeWithSignature(\n        \"_callback(uint256,uint256)\",\n        requests[_requestId].tokenId,\n        _price\n      )\n    );\n    require(success);\n    return true;\n  }\n\n  /**\n  ** For local testing\n  **/\n  function generateId()\n    internal\n    view\n    returns (bytes32)\n  {\n    return bytes32(block.timestamp);\n  }\n\n  function getOwner()\n    public\n    view\n    returns (address)\n  {\n    return owner;\n  }\n\n  function getAddress()\n    public\n    view\n    returns (address)\n  {\n    return address(this);\n  }\n\n  function kill()\n    public\n  {\n    require(msg.sender == owner);\n    selfdestruct(owner);\n  }\n}\n",
  "sourcePath": "/home/vagrant/DAPPS/smartpiggiesGithub/smartpiggies/contracts/ResolverSelfReturn.sol",
  "compiler": {
    "name": "solc",
    "version": "0.5.17+commit.d19bba13.Emscripten.clang"
  },
  "schemaVersion": "3.1.0",
  "updatedAt": "2020-05-12T22:23:19.105Z",
  "devdoc": {
    "methods": {}
  },
  "userdoc": {
    "methods": {}
  }
}