{
  "contractName": "ResolverSelfAttack",
  "abi": [
    {
      "inputs": [
        {
          "internalType": "string",
          "name": "_dataSource",
          "type": "string"
        },
        {
          "internalType": "string",
          "name": "_underlying",
          "type": "string"
        },
        {
          "internalType": "string",
          "name": "_oracleService",
          "type": "string"
        },
        {
          "internalType": "string",
          "name": "_endpoint",
          "type": "string"
        },
        {
          "internalType": "string",
          "name": "_path",
          "type": "string"
        },
        {
          "internalType": "address",
          "name": "_oracleTokenAddress",
          "type": "address"
        },
        {
          "internalType": "uint256",
          "name": "_price",
          "type": "uint256"
        }
      ],
      "payable": false,
      "stateMutability": "nonpayable",
      "type": "constructor"
    },
    {
      "constant": true,
      "inputs": [],
      "name": "approveReturn",
      "outputs": [
        {
          "internalType": "string",
          "name": "",
          "type": "string"
        }
      ],
      "payable": false,
      "stateMutability": "view",
      "type": "function"
    },
    {
      "constant": true,
      "inputs": [],
      "name": "attackReturn",
      "outputs": [
        {
          "internalType": "string",
          "name": "",
          "type": "string"
        }
      ],
      "payable": false,
      "stateMutability": "view",
      "type": "function"
    },
    {
      "constant": true,
      "inputs": [
        {
          "internalType": "bytes32",
          "name": "",
          "type": "bytes32"
        }
      ],
      "name": "callers",
      "outputs": [
        {
          "internalType": "address",
          "name": "",
          "type": "address"
        }
      ],
      "payable": false,
      "stateMutability": "view",
      "type": "function"
    },
    {
      "constant": true,
      "inputs": [],
      "name": "count",
      "outputs": [
        {
          "internalType": "uint8",
          "name": "",
          "type": "uint8"
        }
      ],
      "payable": false,
      "stateMutability": "view",
      "type": "function"
    },
    {
      "constant": true,
      "inputs": [],
      "name": "dataSource",
      "outputs": [
        {
          "internalType": "string",
          "name": "",
          "type": "string"
        }
      ],
      "payable": false,
      "stateMutability": "view",
      "type": "function"
    },
    {
      "constant": true,
      "inputs": [],
      "name": "didApprove",
      "outputs": [
        {
          "internalType": "bool",
          "name": "",
          "type": "bool"
        }
      ],
      "payable": false,
      "stateMutability": "view",
      "type": "function"
    },
    {
      "constant": true,
      "inputs": [],
      "name": "didAttack",
      "outputs": [
        {
          "internalType": "bool",
          "name": "",
          "type": "bool"
        }
      ],
      "payable": false,
      "stateMutability": "view",
      "type": "function"
    },
    {
      "constant": true,
      "inputs": [],
      "name": "didRequest",
      "outputs": [
        {
          "internalType": "bool",
          "name": "",
          "type": "bool"
        }
      ],
      "payable": false,
      "stateMutability": "view",
      "type": "function"
    },
    {
      "constant": true,
      "inputs": [],
      "name": "didSatisfy",
      "outputs": [
        {
          "internalType": "bool",
          "name": "",
          "type": "bool"
        }
      ],
      "payable": false,
      "stateMutability": "view",
      "type": "function"
    },
    {
      "constant": true,
      "inputs": [],
      "name": "didXfer",
      "outputs": [
        {
          "internalType": "bool",
          "name": "",
          "type": "bool"
        }
      ],
      "payable": false,
      "stateMutability": "view",
      "type": "function"
    },
    {
      "constant": true,
      "inputs": [],
      "name": "endpoint",
      "outputs": [
        {
          "internalType": "string",
          "name": "",
          "type": "string"
        }
      ],
      "payable": false,
      "stateMutability": "view",
      "type": "function"
    },
    {
      "constant": true,
      "inputs": [],
      "name": "jobId",
      "outputs": [
        {
          "internalType": "bytes32",
          "name": "",
          "type": "bytes32"
        }
      ],
      "payable": false,
      "stateMutability": "view",
      "type": "function"
    },
    {
      "constant": true,
      "inputs": [],
      "name": "lastId",
      "outputs": [
        {
          "internalType": "bytes32",
          "name": "",
          "type": "bytes32"
        }
      ],
      "payable": false,
      "stateMutability": "view",
      "type": "function"
    },
    {
      "constant": true,
      "inputs": [],
      "name": "lastPrice",
      "outputs": [
        {
          "internalType": "uint256",
          "name": "",
          "type": "uint256"
        }
      ],
      "payable": false,
      "stateMutability": "view",
      "type": "function"
    },
    {
      "constant": true,
      "inputs": [],
      "name": "nonce",
      "outputs": [
        {
          "internalType": "uint8",
          "name": "",
          "type": "uint8"
        }
      ],
      "payable": false,
      "stateMutability": "view",
      "type": "function"
    },
    {
      "constant": true,
      "inputs": [],
      "name": "oracleService",
      "outputs": [
        {
          "internalType": "string",
          "name": "",
          "type": "string"
        }
      ],
      "payable": false,
      "stateMutability": "view",
      "type": "function"
    },
    {
      "constant": true,
      "inputs": [],
      "name": "oracleTokenAddress",
      "outputs": [
        {
          "internalType": "address",
          "name": "",
          "type": "address"
        }
      ],
      "payable": false,
      "stateMutability": "view",
      "type": "function"
    },
    {
      "constant": true,
      "inputs": [],
      "name": "path",
      "outputs": [
        {
          "internalType": "string",
          "name": "",
          "type": "string"
        }
      ],
      "payable": false,
      "stateMutability": "view",
      "type": "function"
    },
    {
      "constant": true,
      "inputs": [],
      "name": "price",
      "outputs": [
        {
          "internalType": "uint256",
          "name": "",
          "type": "uint256"
        }
      ],
      "payable": false,
      "stateMutability": "view",
      "type": "function"
    },
    {
      "constant": true,
      "inputs": [],
      "name": "priceReturn",
      "outputs": [
        {
          "internalType": "string",
          "name": "",
          "type": "string"
        }
      ],
      "payable": false,
      "stateMutability": "view",
      "type": "function"
    },
    {
      "constant": true,
      "inputs": [],
      "name": "requestReturn",
      "outputs": [
        {
          "internalType": "string",
          "name": "",
          "type": "string"
        }
      ],
      "payable": false,
      "stateMutability": "view",
      "type": "function"
    },
    {
      "constant": true,
      "inputs": [
        {
          "internalType": "bytes32",
          "name": "",
          "type": "bytes32"
        }
      ],
      "name": "requests",
      "outputs": [
        {
          "internalType": "address",
          "name": "requester",
          "type": "address"
        },
        {
          "internalType": "address",
          "name": "payee",
          "type": "address"
        },
        {
          "internalType": "uint256",
          "name": "tokenId",
          "type": "uint256"
        }
      ],
      "payable": false,
      "stateMutability": "view",
      "type": "function"
    },
    {
      "constant": true,
      "inputs": [],
      "name": "satisfyReturn",
      "outputs": [
        {
          "internalType": "string",
          "name": "",
          "type": "string"
        }
      ],
      "payable": false,
      "stateMutability": "view",
      "type": "function"
    },
    {
      "constant": true,
      "inputs": [],
      "name": "smartpiggies",
      "outputs": [
        {
          "internalType": "address",
          "name": "",
          "type": "address"
        }
      ],
      "payable": false,
      "stateMutability": "view",
      "type": "function"
    },
    {
      "constant": true,
      "inputs": [],
      "name": "tokenId",
      "outputs": [
        {
          "internalType": "uint256",
          "name": "",
          "type": "uint256"
        }
      ],
      "payable": false,
      "stateMutability": "view",
      "type": "function"
    },
    {
      "constant": true,
      "inputs": [],
      "name": "underlying",
      "outputs": [
        {
          "internalType": "string",
          "name": "",
          "type": "string"
        }
      ],
      "payable": false,
      "stateMutability": "view",
      "type": "function"
    },
    {
      "constant": true,
      "inputs": [],
      "name": "xferReturn",
      "outputs": [
        {
          "internalType": "string",
          "name": "",
          "type": "string"
        }
      ],
      "payable": false,
      "stateMutability": "view",
      "type": "function"
    },
    {
      "constant": false,
      "inputs": [],
      "name": "approve",
      "outputs": [],
      "payable": false,
      "stateMutability": "nonpayable",
      "type": "function"
    },
    {
      "constant": false,
      "inputs": [],
      "name": "satisfyAuction",
      "outputs": [],
      "payable": false,
      "stateMutability": "nonpayable",
      "type": "function"
    },
    {
      "constant": false,
      "inputs": [],
      "name": "requestSettlement",
      "outputs": [],
      "payable": false,
      "stateMutability": "nonpayable",
      "type": "function"
    },
    {
      "constant": false,
      "inputs": [
        {
          "internalType": "address",
          "name": "_funder",
          "type": "address"
        },
        {
          "internalType": "uint256",
          "name": "_oracleFee",
          "type": "uint256"
        },
        {
          "internalType": "uint256",
          "name": "_tokenId",
          "type": "uint256"
        }
      ],
      "name": "fetchData",
      "outputs": [
        {
          "internalType": "bool",
          "name": "",
          "type": "bool"
        }
      ],
      "payable": false,
      "stateMutability": "nonpayable",
      "type": "function"
    },
    {
      "constant": false,
      "inputs": [
        {
          "internalType": "bytes32",
          "name": "_requestId",
          "type": "bytes32"
        },
        {
          "internalType": "uint256",
          "name": "_price",
          "type": "uint256"
        }
      ],
      "name": "attackCallback",
      "outputs": [],
      "payable": false,
      "stateMutability": "nonpayable",
      "type": "function"
    },
    {
      "constant": false,
      "inputs": [
        {
          "internalType": "bytes32",
          "name": "_requestId",
          "type": "bytes32"
        },
        {
          "internalType": "uint256",
          "name": "_price",
          "type": "uint256"
        }
      ],
      "name": "getPriceCallback",
      "outputs": [
        {
          "internalType": "bool",
          "name": "",
          "type": "bool"
        }
      ],
      "payable": false,
      "stateMutability": "nonpayable",
      "type": "function"
    },
    {
      "constant": true,
      "inputs": [],
      "name": "getOwner",
      "outputs": [
        {
          "internalType": "address",
          "name": "",
          "type": "address"
        }
      ],
      "payable": false,
      "stateMutability": "view",
      "type": "function"
    },
    {
      "constant": true,
      "inputs": [],
      "name": "getAddress",
      "outputs": [
        {
          "internalType": "address",
          "name": "",
          "type": "address"
        }
      ],
      "payable": false,
      "stateMutability": "view",
      "type": "function"
    },
    {
      "constant": false,
      "inputs": [
        {
          "internalType": "address",
          "name": "_spAddy",
          "type": "address"
        }
      ],
      "name": "setAddress",
      "outputs": [],
      "payable": false,
      "stateMutability": "nonpayable",
      "type": "function"
    },
    {
      "constant": false,
      "inputs": [
        {
          "internalType": "uint256",
          "name": "_id",
          "type": "uint256"
        }
      ],
      "name": "setTokenId",
      "outputs": [],
      "payable": false,
      "stateMutability": "nonpayable",
      "type": "function"
    },
    {
      "constant": false,
      "inputs": [],
      "name": "kill",
      "outputs": [],
      "payable": false,
      "stateMutability": "nonpayable",
      "type": "function"
    }
  ],
  "bytecode": "0x60806040523480156200001157600080fd5b506040516200182038038062001820833981810160405260e08110156200003757600080fd5b81019080805160405193929190846401000000008211156200005857600080fd5b9083019060208201858111156200006e57600080fd5b82516401000000008111828201881017156200008957600080fd5b82525081516020918201929091019080838360005b83811015620000b85781810151838201526020016200009e565b50505050905090810190601f168015620000e65780820380516001836020036101000a031916815260200191505b50604052602001805160405193929190846401000000008211156200010a57600080fd5b9083019060208201858111156200012057600080fd5b82516401000000008111828201881017156200013b57600080fd5b82525081516020918201929091019080838360005b838110156200016a57818101518382015260200162000150565b50505050905090810190601f168015620001985780820380516001836020036101000a031916815260200191505b5060405260200180516040519392919084640100000000821115620001bc57600080fd5b908301906020820185811115620001d257600080fd5b8251640100000000811182820188101715620001ed57600080fd5b82525081516020918201929091019080838360005b838110156200021c57818101518382015260200162000202565b50505050905090810190601f1680156200024a5780820380516001836020036101000a031916815260200191505b50604052602001805160405193929190846401000000008211156200026e57600080fd5b9083019060208201858111156200028457600080fd5b82516401000000008111828201881017156200029f57600080fd5b82525081516020918201929091019080838360005b83811015620002ce578181015183820152602001620002b4565b50505050905090810190601f168015620002fc5780820380516001836020036101000a031916815260200191505b50604052602001805160405193929190846401000000008211156200032057600080fd5b9083019060208201858111156200033657600080fd5b82516401000000008111828201881017156200035157600080fd5b82525081516020918201929091019080838360005b838110156200038057818101518382015260200162000366565b50505050905090810190601f168015620003ae5780820380516001836020036101000a031916815260200191505b5060409081526020828101519290910151600080546001600160a01b0319163317905589519294509250620003e9916004918a019062000495565b508551620003ff90600590602089019062000495565b5084516200041590600690602088019062000495565b507f343933363130636666313433343666373836663838656437393161623737303460095583516200044f90600790602087019062000495565b5082516200046590600890602086019062000495565b50600355600a80546001600160a01b0319166001600160a01b0392909216919091179055506200053a9350505050565b828054600181600116156101000203166002900490600052602060002090601f016020900481019282601f10620004d857805160ff191683800117855562000508565b8280016001018555821562000508579182015b8281111562000508578251825591602001919060010190620004eb565b50620005169291506200051a565b5090565b6200053791905b8082111562000516576000815560010162000521565b90565b6112d6806200054a6000396000f3fe608060405234801561001057600080fd5b50600436106101c25760003560e01c8063053f14da146101c757806306661abd146101e157806312424e3f146101ff57806317d70f7c146102095780631aa8ccc9146102115780631b076edc146102575780631c6dc0ce146102d457806323819262146102dc57806338cc4831146102ff5780633dc063561461032357806341c0e1b51461032b57806345a6ab9914610333578063517e2c231461033b5780635e280f11146103435780636722b27d1461034b5780636f307dc3146103535780637936464e1461035b5780637f58d51814610378578063893d20e81461038057806393b2a651146103885780639d86698514610390578063a035b1fe146103d7578063a3a0a1dd146103df578063a3da2e4b14610402578063a59ec0251461040a578063ad70c2ef14610412578063afaafe8f1461041a578063affed0e014610422578063b9c1f0211461042a578063ba47c75d14610432578063bf6820151461043a578063c1292cc314610442578063c2939d971461044a578063c4a76b8414610452578063c929ccf31461045a578063daa64f9514610477578063e30081a01461047f578063ea110435146104a5575b600080fd5b6101cf6104ad565b60408051918252519081900360200190f35b6101e96104b3565b6040805160ff9092168252519081900360200190f35b6102076104c3565b005b6101cf6105f6565b6102436004803603606081101561022757600080fd5b506001600160a01b0381351690602081013590604001356105fc565b604080519115158252519081900360200190f35b61025f61091e565b6040805160208082528351818301528351919283929083019185019080838360005b83811015610299578181015183820152602001610281565b50505050905090810190601f1680156102c65780820380516001836020036101000a031916815260200191505b509250505060405180910390f35b61025f6109ac565b610243600480360360408110156102f257600080fd5b5080359060200135610a07565b610307610b33565b604080516001600160a01b039092168252519081900360200190f35b61025f610b38565b610207610b93565b61025f610bb8565b610207610c13565b61025f610d45565b610307610da0565b61025f610daf565b6103076004803603602081101561037157600080fd5b5035610e0a565b610243610e25565b610307610e35565b610207610e44565b6103ad600480360360208110156103a657600080fd5b5035610f70565b604080516001600160a01b0394851681529290931660208301528183015290519081900360600190f35b6101cf610f9e565b610207600480360360408110156103f557600080fd5b5080359060200135610fa4565b61025f610fb3565b61025f61100e565b61025f611069565b6102436110c4565b6101e96110d4565b61025f6110dd565b610243611138565b610243611148565b6101cf611158565b6101cf61115e565b610307611164565b6102076004803603602081101561047057600080fd5b5035611173565b61025f611178565b6102076004803603602081101561049557600080fd5b50356001600160a01b03166111d3565b6102436111f5565b60025481565b600a54600160a01b900460ff1681565b6040805130602482015268056bc75e2d6310000060448083019190915282518083039091018152606490910182526020810180516001600160e01b031663095ea7b360e01b178152600a549251825192936000936060936001600160a01b039290921692620f42409287928291908083835b602083106105545780518252601f199092019160209182019101610535565b6001836020036101000a03801982511681845116808217855250505050505090500191505060006040518083038160008787f1925050503d80600081146105b7576040519150601f19603f3d011682016040523d82523d6000602084013e6105bc565b606091505b50805191935091506105d590600d906020840190611209565b5050600c8054911515600160a01b0260ff60a01b1990921691909117905550565b600b5481565b600a805460ff60a01b198116600160a01b9182900460ff908116600181019091169092021790915560009081906060906002111561075557600c54600b54604080516024810192909252600060448084019190915281518084039091018152606490920181526020820180516001600160e01b03166301a16e2d60e61b178152905182516001600160a01b0390941693909182918083835b602083106106b35780518252601f199092019160209182019101610694565b6001836020036101000a0380198251168184511680821785525050505050509050019150506000604051808303816000865af19150503d8060008114610715576040519150601f19603f3d011682016040523d82523d6000602084013e61071a565b606091505b50600c805460ff60a81b1916600160a81b841515021790558051919350915061074a90600e906020840190611209565b506003805460010190555b600061075f611205565b600181815560408051606081018252338082526001600160a01b038c811660208085019182528486018d8152600089815260148352878120965187549086166001600160a01b03199182161788559351988701805499909516988416989098179093559151600290940193909355601590529190922080549092161790556003549091506107ee908290610a07565b50600a54604080516001600160a01b038a8116602483015230604483015260648083018b905283518084039091018152608490920183526020820180516001600160e01b03166323b872dd60e01b178152925182519190941693919282918083835b6020831061086f5780518252601f199092019160209182019101610850565b6001836020036101000a0380198251168184511680821785525050505050509050019150506000604051808303816000865af19150503d80600081146108d1576040519150601f19603f3d011682016040523d82523d6000602084013e6108d6565b606091505b50600c805460ff60b01b1916600160b01b841515021790558051919450925061090690600f906020850190611209565b508261091157600080fd5b5060019695505050505050565b6004805460408051602060026001851615610100026000190190941693909304601f810184900484028201840190925281815292918301828280156109a45780601f10610979576101008083540402835291602001916109a4565b820191906000526020600020905b81548152906001019060200180831161098757829003601f168201915b505050505081565b6012805460408051602060026001851615610100026000190190941693909304601f810184900484028201840190925281815292918301828280156109a45780601f10610979576101008083540402835291602001916109a4565b600281815560008381526014602090815260408083208054940154815160248101919091526044808201879052825180830390910181526064909101825291820180516001600160e01b03166355f88eb760e11b17815290518251939485946060946001600160a01b039092169391929182918083835b60208310610a9d5780518252601f199092019160209182019101610a7e565b6001836020036101000a0380198251168184511680821785525050505050509050019150506000604051808303816000865af19150503d8060008114610aff576040519150601f19603f3d011682016040523d82523d6000602084013e610b04565b606091505b5080519193509150610b1d906012906020840190611209565b5081610b2857600080fd5b506001949350505050565b305b90565b6008805460408051602060026001851615610100026000190190941693909304601f810184900484028201840190925281815292918301828280156109a45780601f10610979576101008083540402835291602001916109a4565b6000546001600160a01b03163314610baa57600080fd5b6000546001600160a01b0316ff5b600e805460408051602060026001851615610100026000190190941693909304601f810184900484028201840190925281815292918301828280156109a45780601f10610979576101008083540402835291602001916109a4565b600b5460135460408051602481019390935260ff90911660448084019190915281518084039091018152606490920181526020820180516001600160e01b0316631ca1806960e21b178152600c54915183516000936060936001600160a01b0390911692620f424092879282918083835b60208310610ca35780518252601f199092019160209182019101610c84565b6001836020036101000a03801982511681845116808217855250505050505090500191505060006040518083038160008787f1925050503d8060008114610d06576040519150601f19603f3d011682016040523d82523d6000602084013e610d0b565b606091505b5080519193509150610d24906010906020840190611209565b5050600c8054911515600160b81b0260ff60b81b1990921691909117905550565b6007805460408051602060026001851615610100026000190190941693909304601f810184900484028201840190925281815292918301828280156109a45780601f10610979576101008083540402835291602001916109a4565b600a546001600160a01b031681565b6005805460408051602060026001851615610100026000190190941693909304601f810184900484028201840190925281815292918301828280156109a45780601f10610979576101008083540402835291602001916109a4565b6015602052600090815260409020546001600160a01b031681565b600c54600160b01b900460ff1681565b6000546001600160a01b031690565b600b546040805160248101929092526000604480840182905282518085039091018152606490930182526020830180516001600160e01b03166301a16e2d60e61b178152600c549251845192936060936001600160a01b0390911692620f4240928792909182918083835b60208310610ece5780518252601f199092019160209182019101610eaf565b6001836020036101000a03801982511681845116808217855250505050505090500191505060006040518083038160008787f1925050503d8060008114610f31576040519150601f19603f3d011682016040523d82523d6000602084013e610f36565b606091505b5080519193509150610f4f906011906020840190611209565b5050600c8054911515600160c01b0260ff60c01b1990921691909117905550565b6014602052600090815260409020805460018201546002909201546001600160a01b03918216929091169083565b60035481565b610fae8282610a07565b505050565b6010805460408051602060026001851615610100026000190190941693909304601f810184900484028201840190925281815292918301828280156109a45780601f10610979576101008083540402835291602001916109a4565b6011805460408051602060026001851615610100026000190190941693909304601f810184900484028201840190925281815292918301828280156109a45780601f10610979576101008083540402835291602001916109a4565b600d805460408051602060026001851615610100026000190190941693909304601f810184900484028201840190925281815292918301828280156109a45780601f10610979576101008083540402835291602001916109a4565b600c54600160a81b900460ff1681565b60135460ff1681565b600f805460408051602060026001851615610100026000190190941693909304601f810184900484028201840190925281815292918301828280156109a45780601f10610979576101008083540402835291602001916109a4565b600c54600160c01b900460ff1681565b600c54600160b81b900460ff1681565b60015481565b60095481565b600c546001600160a01b031681565b600b55565b6006805460408051602060026001851615610100026000190190941693909304601f810184900484028201840190925281815292918301828280156109a45780601f10610979576101008083540402835291602001916109a4565b600c80546001600160a01b0319166001600160a01b0392909216919091179055565b600c54600160a01b900460ff1681565b4290565b828054600181600116156101000203166002900490600052602060002090601f016020900481019282601f1061124a57805160ff1916838001178555611277565b82800160010185558215611277579182015b8281111561127757825182559160200191906001019061125c565b50611283929150611287565b5090565b610b3591905b80821115611283576000815560010161128d56fea265627a7a72315820ce92852b6fe57eddeed63e75cdfc65cde0cabaed484032d3111e26157af110e564736f6c63430005110032",
  "source": "pragma solidity >=0.4.24 <0.6.0;\n\n//import \"./RopstenConsumer.sol\";\n\ncontract ResolverSelfAttack {\n  address payable owner; //only for testing\n  bytes32 public lastId; //for testing\n  uint256 public lastPrice; //for testing\n  uint256 public price;\n  string public dataSource;\n  string public underlying;\n  string public oracleService;\n  string public endpoint; //https://api.coincap.io/v2/rates/ethereum\n  string public path; //\"data.rateUsd\"\n  bytes32 public jobId; //493610cff14346f786f88ed791ab7704\n  address public oracleTokenAddress;\n\n  uint8 public count;\n  uint256 public tokenId;\n  address public smartpiggies;\n  bool public didApprove;\n  bool public didAttack;\n  bool public didXfer;\n  bool public didSatisfy;\n  bool public didRequest;\n  string public approveReturn;\n  string public attackReturn;\n  string public xferReturn;\n  string public satisfyReturn;\n  string public requestReturn;\n  string public priceReturn;\n  uint8 public nonce;\n\n  struct Request {\n    address requester;\n    address payee;\n    uint256 tokenId;\n  }\n\n  mapping(bytes32 => Request) public requests;\n  mapping(bytes32 => address) public callers;\n\n  constructor(\n    string memory _dataSource,\n    string memory _underlying,\n    string memory _oracleService,\n    string memory _endpoint,\n    string memory _path,\n    address _oracleTokenAddress,\n    uint256 _price\n  )\n    public\n  {\n    owner = msg.sender;\n    dataSource = _dataSource;\n    underlying = _underlying;\n    oracleService = _oracleService;\n    jobId = bytes32(\"493610cff14346f786f88ed791ab7704\");\n    endpoint = _endpoint;\n    path = _path;\n    price = _price;\n    oracleTokenAddress = _oracleTokenAddress;\n  }\n\n  function approve()\n    public\n  {\n    bytes memory payload = abi.encodeWithSignature(\"approve(address,uint256)\",address(this),100000000000000000000);\n    (bool success, bytes memory data) = address(oracleTokenAddress).call.gas(1000000)(payload);\n    approveReturn = string(data);\n    didApprove = success;\n  }\n\n  function satisfyAuction()\n    public\n  {\n    bytes memory payload = abi.encodeWithSignature(\"satisfyAuction(uint256,uint8)\",tokenId,nonce);\n    (bool success, bytes memory data) = address(smartpiggies).call.gas(1000000)(payload);\n    satisfyReturn = string(data);\n    didSatisfy = success;\n  }\n\n  function requestSettlement()\n    public\n  {\n    bytes memory payload = abi.encodeWithSignature(\"requestSettlementPrice(uint256,uint256)\",tokenId,0);\n    (bool success, bytes memory data) = address(smartpiggies).call.gas(1000000)(payload);\n    requestReturn = string(data);\n    didRequest = success;\n  }\n\n  function fetchData(address _funder, uint256 _oracleFee, uint256 _tokenId)\n    public\n    returns (bool)\n  {\n    bool success;\n    bytes memory data;\n\n    if (count++ < 2) {\n      (success, data) = address(smartpiggies).call(\n        abi.encodeWithSignature(\n          \"requestSettlementPrice(uint256,uint256)\",\n          tokenId,\n          0\n        )\n      );\n      didAttack = success;\n      attackReturn = string(data);\n      price++;\n    }\n\n    bytes32 requestId = generateId();\n    lastId = requestId; //for testing | live network\n    requests[requestId] = Request({\n      requester: msg.sender,\n      payee: _funder,\n      tokenId: _tokenId\n      });\n    callers[requestId] = msg.sender;\n    getPriceCallback(requestId, price);\n\n    // Pay the oracle\n    (success, data) = address(oracleTokenAddress).call(\n      abi.encodeWithSignature(\n        \"transferFrom(address,address,uint256)\",\n        _funder,\n        address(this),\n        _oracleFee\n      )\n    );\n    didXfer = success;\n    xferReturn = string(data);\n    require(success);\n\n    return true;\n\n  }\n\n  function attackCallback(bytes32 _requestId, uint256 _price)\n    public\n  {\n      getPriceCallback(_requestId, _price);\n  }\n\n  function getPriceCallback(bytes32 _requestId, uint256 _price)\n    public\n    //recordChainlinkFulfillment(_requestId)\n    returns (bool)\n  {\n    lastPrice = _price;\n    (bool success, bytes memory data) = address(requests[_requestId].requester).call(\n      abi.encodeWithSignature(\n        \"_callback(uint256,uint256)\",\n        requests[_requestId].tokenId,\n        _price\n      )\n    );\n    priceReturn = string(data);\n    require(success);\n    return true;\n  }\n\n  /**\n  ** For local testing\n  **/\n  function generateId()\n    internal\n    view\n    returns (bytes32)\n  {\n    return bytes32(block.timestamp);\n  }\n\n  function getOwner()\n    public\n    view\n    returns (address)\n  {\n    return owner;\n  }\n\n  function getAddress()\n    public\n    view\n    returns (address)\n  {\n    return address(this);\n  }\n\n  function setAddress(address _spAddy)\n    public\n  {\n    smartpiggies = _spAddy;\n  }\n\n  function setTokenId(uint256 _id)\n    public\n  {\n    tokenId = _id;\n  }\n\n  function kill()\n    public\n  {\n    require(msg.sender == owner);\n    selfdestruct(owner);\n  }\n}\n",
  "sourcePath": "/home/vagrant/DAPPS/smartpiggiesGithub/smartpiggies/contracts/ResolverSelfAttack.sol",
  "compiler": {
    "name": "solc",
    "version": "0.5.17+commit.d19bba13.Emscripten.clang"
  },
  "schemaVersion": "3.1.0",
  "updatedAt": "2020-05-10T02:53:32.999Z",
  "devdoc": {
    "methods": {}
  },
  "userdoc": {
    "methods": {}
  }
}